{
  "_format": "hh-sol-artifact-1",
  "contractName": "BinaryOptions",
  "sourceName": "contracts/BinaryOptions.sol",
  "abi": [
    {
      "inputs": [
        {
          "internalType": "address",
          "name": "routerAddress",
          "type": "address"
        },
        {
          "internalType": "address",
          "name": "_tokenIn",
          "type": "address"
        },
        {
          "internalType": "address",
          "name": "_tokenOut",
          "type": "address"
        }
      ],
      "stateMutability": "nonpayable",
      "type": "constructor"
    },
    {
      "anonymous": false,
      "inputs": [
        {
          "indexed": true,
          "internalType": "address",
          "name": "from",
          "type": "address"
        }
      ],
      "name": "Bought",
      "type": "event"
    },
    {
      "anonymous": false,
      "inputs": [
        {
          "indexed": true,
          "internalType": "address",
          "name": "from",
          "type": "address"
        }
      ],
      "name": "Collect",
      "type": "event"
    },
    {
      "anonymous": false,
      "inputs": [
        {
          "indexed": false,
          "internalType": "uint32",
          "name": "timeStamp",
          "type": "uint32"
        }
      ],
      "name": "Execute",
      "type": "event"
    },
    {
      "anonymous": false,
      "inputs": [
        {
          "indexed": true,
          "internalType": "address",
          "name": "from",
          "type": "address"
        },
        {
          "indexed": false,
          "internalType": "uint32",
          "name": "timeStamp",
          "type": "uint32"
        }
      ],
      "name": "Place",
      "type": "event"
    },
    {
      "anonymous": false,
      "inputs": [
        {
          "indexed": true,
          "internalType": "address",
          "name": "from",
          "type": "address"
        }
      ],
      "name": "Sold",
      "type": "event"
    },
    {
      "inputs": [
        {
          "internalType": "uint256",
          "name": "amount",
          "type": "uint256"
        },
        {
          "internalType": "uint256",
          "name": "price",
          "type": "uint256"
        }
      ],
      "name": "binToEther",
      "outputs": [
        {
          "internalType": "uint256",
          "name": "",
          "type": "uint256"
        }
      ],
      "stateMutability": "pure",
      "type": "function"
    },
    {
      "inputs": [],
      "name": "buy",
      "outputs": [],
      "stateMutability": "payable",
      "type": "function"
    },
    {
      "inputs": [],
      "name": "collect",
      "outputs": [],
      "stateMutability": "nonpayable",
      "type": "function"
    },
    {
      "inputs": [
        {
          "internalType": "address",
          "name": "",
          "type": "address"
        },
        {
          "internalType": "uint256",
          "name": "",
          "type": "uint256"
        }
      ],
      "name": "collectedOptions",
      "outputs": [
        {
          "internalType": "uint32",
          "name": "",
          "type": "uint32"
        }
      ],
      "stateMutability": "view",
      "type": "function"
    },
    {
      "inputs": [
        {
          "internalType": "uint256",
          "name": "amount",
          "type": "uint256"
        },
        {
          "internalType": "uint256",
          "name": "price",
          "type": "uint256"
        }
      ],
      "name": "ehterToBin",
      "outputs": [
        {
          "internalType": "uint256",
          "name": "",
          "type": "uint256"
        }
      ],
      "stateMutability": "pure",
      "type": "function"
    },
    {
      "inputs": [
        {
          "internalType": "uint32",
          "name": "timeStamp",
          "type": "uint32"
        }
      ],
      "name": "executeRound",
      "outputs": [],
      "stateMutability": "nonpayable",
      "type": "function"
    },
    {
      "inputs": [],
      "name": "getBinSupply",
      "outputs": [
        {
          "internalType": "uint256",
          "name": "",
          "type": "uint256"
        }
      ],
      "stateMutability": "view",
      "type": "function"
    },
    {
      "inputs": [],
      "name": "getCollateral",
      "outputs": [
        {
          "internalType": "uint256",
          "name": "",
          "type": "uint256"
        }
      ],
      "stateMutability": "view",
      "type": "function"
    },
    {
      "inputs": [
        {
          "internalType": "address",
          "name": "wallet",
          "type": "address"
        }
      ],
      "name": "getCollectedOptionsLength",
      "outputs": [
        {
          "internalType": "uint256",
          "name": "",
          "type": "uint256"
        }
      ],
      "stateMutability": "view",
      "type": "function"
    },
    {
      "inputs": [],
      "name": "getEthPrice",
      "outputs": [
        {
          "internalType": "uint64",
          "name": "",
          "type": "uint64"
        }
      ],
      "stateMutability": "view",
      "type": "function"
    },
    {
      "inputs": [],
      "name": "getOptionsLength",
      "outputs": [
        {
          "internalType": "uint256",
          "name": "",
          "type": "uint256"
        }
      ],
      "stateMutability": "view",
      "type": "function"
    },
    {
      "inputs": [
        {
          "internalType": "uint32",
          "name": "timeStamp",
          "type": "uint32"
        },
        {
          "internalType": "bool",
          "name": "higher",
          "type": "bool"
        }
      ],
      "name": "getPayOut",
      "outputs": [
        {
          "internalType": "uint256",
          "name": "",
          "type": "uint256"
        }
      ],
      "stateMutability": "view",
      "type": "function"
    },
    {
      "inputs": [
        {
          "internalType": "address",
          "name": "wallet",
          "type": "address"
        }
      ],
      "name": "getPendingOptionsLength",
      "outputs": [
        {
          "internalType": "uint256",
          "name": "",
          "type": "uint256"
        }
      ],
      "stateMutability": "view",
      "type": "function"
    },
    {
      "inputs": [
        {
          "internalType": "uint256",
          "name": "amountTobuy",
          "type": "uint256"
        }
      ],
      "name": "getPrice",
      "outputs": [
        {
          "internalType": "uint256",
          "name": "",
          "type": "uint256"
        }
      ],
      "stateMutability": "view",
      "type": "function"
    },
    {
      "inputs": [],
      "name": "getReadyToCollect",
      "outputs": [
        {
          "internalType": "uint256",
          "name": "",
          "type": "uint256"
        },
        {
          "internalType": "uint256",
          "name": "",
          "type": "uint256"
        }
      ],
      "stateMutability": "view",
      "type": "function"
    },
    {
      "inputs": [
        {
          "internalType": "uint256",
          "name": "",
          "type": "uint256"
        }
      ],
      "name": "options",
      "outputs": [
        {
          "internalType": "uint64",
          "name": "price",
          "type": "uint64"
        },
        {
          "internalType": "bool",
          "name": "higher",
          "type": "bool"
        },
        {
          "internalType": "uint32",
          "name": "execute",
          "type": "uint32"
        },
        {
          "internalType": "uint256",
          "name": "amount",
          "type": "uint256"
        },
        {
          "internalType": "uint32",
          "name": "id",
          "type": "uint32"
        },
        {
          "internalType": "uint256",
          "name": "payout",
          "type": "uint256"
        },
        {
          "internalType": "address payable",
          "name": "buyer",
          "type": "address"
        },
        {
          "internalType": "bool",
          "name": "winner",
          "type": "bool"
        }
      ],
      "stateMutability": "view",
      "type": "function"
    },
    {
      "inputs": [
        {
          "internalType": "address",
          "name": "",
          "type": "address"
        },
        {
          "internalType": "uint256",
          "name": "",
          "type": "uint256"
        }
      ],
      "name": "pendingOptions",
      "outputs": [
        {
          "internalType": "uint32",
          "name": "",
          "type": "uint32"
        }
      ],
      "stateMutability": "view",
      "type": "function"
    },
    {
      "inputs": [
        {
          "internalType": "uint32",
          "name": "timeStamp",
          "type": "uint32"
        },
        {
          "internalType": "uint256",
          "name": "amount",
          "type": "uint256"
        },
        {
          "internalType": "bool",
          "name": "higher",
          "type": "bool"
        }
      ],
      "name": "place",
      "outputs": [],
      "stateMutability": "nonpayable",
      "type": "function"
    },
    {
      "inputs": [
        {
          "internalType": "uint32",
          "name": "",
          "type": "uint32"
        }
      ],
      "name": "rounds",
      "outputs": [
        {
          "internalType": "bool",
          "name": "executed",
          "type": "bool"
        },
        {
          "internalType": "uint32",
          "name": "options",
          "type": "uint32"
        },
        {
          "internalType": "uint64",
          "name": "price",
          "type": "uint64"
        },
        {
          "internalType": "uint256",
          "name": "higherAmount",
          "type": "uint256"
        },
        {
          "internalType": "uint256",
          "name": "lowerAmount",
          "type": "uint256"
        }
      ],
      "stateMutability": "view",
      "type": "function"
    },
    {
      "inputs": [
        {
          "internalType": "uint256",
          "name": "amount",
          "type": "uint256"
        }
      ],
      "name": "sell",
      "outputs": [],
      "stateMutability": "nonpayable",
      "type": "function"
    },
    {
      "inputs": [],
      "name": "token",
      "outputs": [
        {
          "internalType": "contract BinToken",
          "name": "",
          "type": "address"
        }
      ],
      "stateMutability": "view",
      "type": "function"
    }
  ],
  "bytecode": "0x60e06040523480156200001157600080fd5b5060405162004bad38038062004bad833981016040819052620000349162000165565b600060405162000044906200013a565b604051809103906000f08015801562000061573d6000803e3d6000fd5b50600280546001600160a01b0319166001600160a01b03831690811790915560405163095ea7b360e01b815230600482015260001960248201529192509063095ea7b390604401602060405180830381600087803b158015620000c357600080fd5b505af1158015620000d8573d6000803e3d6000fd5b505050506040513d601f19601f82011682018060405250810190620000fe9190620001af565b50506001600160601b0319606093841b811660805291831b821660a05290911b1660c052600080546001600160a01b03191633179055620001da565b6124b380620026fa83390190565b80516001600160a01b03811681146200016057600080fd5b919050565b6000806000606084860312156200017b57600080fd5b620001868462000148565b9250620001966020850162000148565b9150620001a66040850162000148565b90509250925092565b600060208284031215620001c257600080fd5b81518015158114620001d357600080fd5b9392505050565b60805160601c60a05160601c60c05160601c6124e76200021360003960006111cc0152600061115e0152600061124c01526124e76000f3fe60806040526004361061016a5760003560e01c806367c9b017116100cb578063a6f2ae3a1161007f578063e522538111610059578063e5225381146104e8578063e7572230146104fd578063fc0c546a1461051d57600080fd5b8063a6f2ae3a146104a0578063c4f44214146104a8578063e4849b32146104c857600080fd5b806379a6d51f116100b057806379a6d51f146103a15780637f4f3d0f1461043d5780639c22debf1461045d57600080fd5b806367c9b0171461033057806376c163d21461035e57600080fd5b8063409e22051161012257806359694f5d1161010757806359694f5d146102d35780635c1548fb146103085780635eb57b481461031b57600080fd5b8063409e2205146102285780634b4fd3ba146102b357600080fd5b80631e735b22116101535780631e735b22146101b757806322ffe218146101dc57806328f10c161461020657600080fd5b8063012803801461016f5780631886af23146101a2575b600080fd5b34801561017b57600080fd5b5061018f61018a3660046121ac565b61056f565b6040519081526020015b60405180910390f35b3480156101ae57600080fd5b5061018f610594565b3480156101c357600080fd5b5061018f6101d23660046121e9565b6201388092915050565b3480156101e857600080fd5b506101f161063c565b60408051928352602083019190915201610199565b34801561021257600080fd5b506102266102213660046121ce565b6107c0565b005b34801561023457600080fd5b5061024861024336600461217a565b610a76565b6040805167ffffffffffffffff9099168952961515602089015263ffffffff9586169688019690965260608701939093529216608085015260a084019190915273ffffffffffffffffffffffffffffffffffffffff1660c0830152151560e082015261010001610199565b3480156102bf57600080fd5b506102266102ce366004612220565b610b1c565b3480156102df57600080fd5b506102f36102ee366004612050565b6110ed565b60405163ffffffff9091168152602001610199565b34801561031457600080fd5b504761018f565b34801561032757600080fd5b5060035461018f565b34801561033c57600080fd5b50610345611136565b60405167ffffffffffffffff9091168152602001610199565b34801561036a57600080fd5b5061018f610379366004612035565b73ffffffffffffffffffffffffffffffffffffffff1660009081526005602052604090205490565b3480156103ad57600080fd5b506103ff6103bc3660046121ce565b60046020526000908152604090208054600182015460029092015460ff821692610100830463ffffffff169265010000000000900467ffffffffffffffff169185565b60408051951515865263ffffffff909416602086015267ffffffffffffffff909216928401929092526060830191909152608082015260a001610199565b34801561044957600080fd5b5061018f6104583660046121ac565b611327565b34801561046957600080fd5b5061018f610478366004612035565b73ffffffffffffffffffffffffffffffffffffffff1660009081526006602052604090205490565b61022661133f565b3480156104b457600080fd5b506102f36104c3366004612050565b611476565b3480156104d457600080fd5b506102266104e336600461217a565b611492565b3480156104f457600080fd5b5061022661180b565b34801561050957600080fd5b5061018f61051836600461217a565b611d33565b34801561052957600080fd5b5060025461054a9073ffffffffffffffffffffffffffffffffffffffff1681565b60405173ffffffffffffffffffffffffffffffffffffffff9091168152602001610199565b600061058d8261058785670de0b6b3a7640000611e23565b90611e2f565b9392505050565b600254604080517f18160ddd000000000000000000000000000000000000000000000000000000008152905160009273ffffffffffffffffffffffffffffffffffffffff16916318160ddd916004808301926020929190829003018186803b1580156105ff57600080fd5b505afa158015610613573d6000803e3d6000fd5b505050506040513d601f19601f820116820180604052508101906106379190612193565b905090565b33600090815260056020526040812081908180805b835463ffffffff821610156107b65760006003858363ffffffff168154811061067c5761067c612442565b90600052602060002090600891828204019190066004029054906101000a900463ffffffff1663ffffffff16815481106106b8576106b8612442565b600091825260208083206005909202909101805463ffffffff69010000000000000000009091041683526004909152604090912080549192509060ff16156107a1578361070481612344565b83549095506000915068010000000000000000900460ff16610743578254825467ffffffffffffffff9182166501000000000090910490911610610762565b8254825467ffffffffffffffff91821665010000000000909104909116115b9050801561079f57610792620186a06105878560030154620186a061078791906122c4565b600187015490611e23565b61079c90876122c4565b95505b505b505080806107ae9061237d565b915050610651565b5094909350915050565b63ffffffff81166000908152600460205260408120905473ffffffffffffffffffffffffffffffffffffffff1633146108405760405162461bcd60e51b815260206004820152601c60248201527f4f6e6c79206f776e65722063616e206578656375746520726f756e640000000060448201526064015b60405180910390fd5b428263ffffffff1611156108965760405162461bcd60e51b815260206004820152601c60248201527f43616e2774206578656375746520612066757475726520726f756e64000000006044820152606401610837565b6108ac63ffffffff8084169061025890611e3b16565b1561091f5760405162461bcd60e51b815260206004820152602660248201527f54696d657374616d70206d757374206265206d756c7469706c65206f6620696e60448201527f74657276616c00000000000000000000000000000000000000000000000000006064820152608401610837565b8054610100900463ffffffff166109785760405162461bcd60e51b815260206004820152601960248201527f4e6f206461746120666f722063757272656e7420726f756e64000000000000006044820152606401610837565b805460ff16156109ca5760405162461bcd60e51b815260206004820152601660248201527f526f756e6420616c7265616479206578656375746564000000000000000000006044820152606401610837565b80547fffffffffffffffffffffffffffffffffffffffffffffffffffffffffffffff001660011781556109fb611136565b815467ffffffffffffffff9190911665010000000000027fffffffffffffffffffffffffffffffffffffff0000000000000000ffffffffff90911617815560405163ffffffff831681527f7d84121a2d00bf22f1216267c15377e1c1d50ae09eb3010701676702c8a332be9060200160405180910390a15050565b60038181548110610a8657600080fd5b60009182526020909120600590910201805460018201546002830154600384015460049094015467ffffffffffffffff8416955060ff68010000000000000000850481169563ffffffff690100000000000000000090960486169593909316929173ffffffffffffffffffffffffffffffffffffffff811691740100000000000000000000000000000000000000009091041688565b60008211610b6c5760405162461bcd60e51b815260206004820152601960248201527f596f75206e65656420746f2073656e6420736f6d652042494e000000000000006044820152606401610837565b6002546040517fdd62ed3e00000000000000000000000000000000000000000000000000000000815233600482015230602482015260009173ffffffffffffffffffffffffffffffffffffffff169063dd62ed3e9060440160206040518083038186803b158015610bdc57600080fd5b505afa158015610bf0573d6000803e3d6000fd5b505050506040513d601f19601f82011682018060405250810190610c149190612193565b905082811015610c665760405162461bcd60e51b815260206004820152601960248201527f436865636b2074686520746f6b656e20616c6c6f77616e6365000000000000006044820152606401610837565b610c7c63ffffffff8086169061025890611e3b16565b15610cef5760405162461bcd60e51b815260206004820152602660248201527f54696d657374616d70206d757374206265206d756c7469706c65206f6620696e60448201527f74657276616c00000000000000000000000000000000000000000000000000006064820152608401610837565b6000610d11610258610d0b610d044283611e3b565b4290611e47565b90611e53565b9050808563ffffffff1611610d685760405162461bcd60e51b815260206004820152601c60248201527f596f752063616e27742062657420666f72206e65787420726f756e64000000006044820152606401610837565b6002546040517f23b872dd0000000000000000000000000000000000000000000000000000000081523360048201523060248201526044810186905273ffffffffffffffffffffffffffffffffffffffff909116906323b872dd90606401602060405180830381600087803b158015610de057600080fd5b505af1158015610df4573d6000803e3d6000fd5b505050506040513d601f19601f82011682018060405250810190610e18919061215d565b5063ffffffff851660009081526004602052604090208315610e535784816001016000828254610e4891906122c4565b90915550610e6d9050565b84816002016000828254610e6791906122c4565b90915550505b8054610100900463ffffffff16816001610e868361237d565b825463ffffffff91821661010093840a908102908302199091161790925560038054336000908152600560209081526040808320805460018101825590845291909220600882040180548488166004600790941693909302870a928302929097021990961617909455835192830190935291925080610f03611136565b67ffffffffffffffff168152871515602082015263ffffffff808b166040830152606082018a90528416608082015260a001620138808152336020808301829052600060409384018190528554600180820188559682529082902085516005909202018054868401518787015167ffffffffffffffff9094167fffffffffffffffffffffffffffffffffffffffffffffff000000000000000000909216919091176801000000000000000091151591909102177fffffffffffffffffffffffffffffffffffffff00000000ffffffffffffffffff16690100000000000000000063ffffffff9384160217815560608601519681019690965560808501516002870180547fffffffffffffffffffffffffffffffffffffffffffffffffffffffff000000001691831691909117905560a0850151600387015560c08501516004909601805460e09096015173ffffffffffffffffffffffffffffffffffffffff9097167fffffffffffffffffffffff000000000000000000000000000000000000000000909616959095177401000000000000000000000000000000000000000096151596909602959095179093559051928a168352917f438db15ca9931a2b72ba15297a261733f5bff8a3b7a0a4e752753587836ad895910160405180910390a250505050505050565b6006602052816000526040600020818154811061110957600080fd5b9060005260206000209060089182820401919006600402915091509054906101000a900463ffffffff1681565b60408051600280825260608083018452600093909291906020830190803683370190505090507f00000000000000000000000000000000000000000000000000000000000000008160008151811061119057611190612442565b602002602001019073ffffffffffffffffffffffffffffffffffffffff16908173ffffffffffffffffffffffffffffffffffffffff16815250507f0000000000000000000000000000000000000000000000000000000000000000816001815181106111fe576111fe612442565b73ffffffffffffffffffffffffffffffffffffffff92831660209182029290920101526040517fd06ca61f0000000000000000000000000000000000000000000000000000000081526000917f0000000000000000000000000000000000000000000000000000000000000000169063d06ca61f90611285906103e8908690600401612260565b60006040518083038186803b15801561129d57600080fd5b505afa1580156112b1573d6000803e3d6000fd5b505050506040513d6000823e601f3d9081017fffffffffffffffffffffffffffffffffffffffffffffffffffffffffffffffe01682016040526112f7919081019061207a565b90508060018351611308919061232d565b8151811061131857611318612442565b60200260200101519250505090565b600061058d670de0b6b3a76400006105878585611e23565b348061138d5760405162461bcd60e51b815260206004820152601b60248201527f596f75206e65656420746f2073656e6420736f6d6520457468657200000000006044820152606401610837565b600061139882611d33565b60025490915073ffffffffffffffffffffffffffffffffffffffff166340c10f19336113c4858561056f565b6040517fffffffff0000000000000000000000000000000000000000000000000000000060e085901b16815273ffffffffffffffffffffffffffffffffffffffff90921660048301526024820152604401600060405180830381600087803b15801561142f57600080fd5b505af1158015611443573d6000803e3d6000fd5b50506040513392507f25a027d4fd2742364c6c140aa4f98ffb075d141de8f24afb5583afb60aaba7dd9150600090a25050565b6005602052816000526040600020818154811061110957600080fd5b600081116115085760405162461bcd60e51b815260206004820152602560248201527f596f75206e65656420746f2073656c6c206174206c6561737420736f6d65207460448201527f6f6b656e730000000000000000000000000000000000000000000000000000006064820152608401610837565b6002546040517fdd62ed3e00000000000000000000000000000000000000000000000000000000815233600482015230602482015260009173ffffffffffffffffffffffffffffffffffffffff169063dd62ed3e9060440160206040518083038186803b15801561157857600080fd5b505afa15801561158c573d6000803e3d6000fd5b505050506040513d601f19601f820116820180604052508101906115b09190612193565b9050818110156116025760405162461bcd60e51b815260206004820152601960248201527f436865636b2074686520746f6b656e20616c6c6f77616e6365000000000000006044820152606401610837565b6002546040517f70a0823100000000000000000000000000000000000000000000000000000000815233600482015260009173ffffffffffffffffffffffffffffffffffffffff16906370a082319060240160206040518083038186803b15801561166c57600080fd5b505afa158015611680573d6000803e3d6000fd5b505050506040513d601f19601f820116820180604052508101906116a49190612193565b9050828110156116f65760405162461bcd60e51b815260206004820152601260248201527f4e6f7420656e6f7567682062616c616e636500000000000000000000000000006044820152606401610837565b60006117026000611d33565b6002546040517f79cc67900000000000000000000000000000000000000000000000000000000081523360048201526024810187905291925073ffffffffffffffffffffffffffffffffffffffff16906379cc679090604401600060405180830381600087803b15801561177557600080fd5b505af1158015611789573d6000803e3d6000fd5b505050503373ffffffffffffffffffffffffffffffffffffffff166108fc6117b18684611327565b6040518115909202916000818181858888f193505050501580156117d9573d6000803e3d6000fd5b5060405133907ffbd6287d9242307b2750fc8252314857896e312d167cdbc9eed322bae8828e0090600090a250505050565b3360009081526005602052604081209080805b835463ffffffff821610156119ce5760006003858363ffffffff168154811061184957611849612442565b90600052602060002090600891828204019190066004029054906101000a900463ffffffff1663ffffffff168154811061188557611885612442565b600091825260208083206005909202909101805463ffffffff69010000000000000000009091041683526004909152604090912080549192509060ff16156119b957815460009068010000000000000000900460ff16611902578254825467ffffffffffffffff9182166501000000000090910490911610611921565b8254825467ffffffffffffffff91821665010000000000909104909116115b9050801561199857611946620186a06105878560030154620186a061078791906122c4565b61195090876122c4565b6004840180547fffffffffffffffffffffff00ffffffffffffffffffffffffffffffffffffffff167401000000000000000000000000000000000000000017905595506119aa565b60018301546119a790866122c4565b94505b6119b384611e5f565b506119c7565b826119c38161237d565b9350505b505061181e565b508115611bc7576002546040517f70a0823100000000000000000000000000000000000000000000000000000000815230600482015260009173ffffffffffffffffffffffffffffffffffffffff16906370a082319060240160206040518083038186803b158015611a3f57600080fd5b505afa158015611a53573d6000803e3d6000fd5b505050506040513d601f19601f82011682018060405250810190611a779190612193565b905082811015611b1a576000611a8d8483611e47565b6002546040517f40c10f190000000000000000000000000000000000000000000000000000000081523060048201526024810183905291925073ffffffffffffffffffffffffffffffffffffffff16906340c10f1990604401600060405180830381600087803b158015611b0057600080fd5b505af1158015611b14573d6000803e3d6000fd5b50505050505b6002546040517fa9059cbb0000000000000000000000000000000000000000000000000000000081523360048201526024810185905273ffffffffffffffffffffffffffffffffffffffff9091169063a9059cbb90604401602060405180830381600087803b158015611b8c57600080fd5b505af1158015611ba0573d6000803e3d6000fd5b505050506040513d601f19601f82011682018060405250810190611bc4919061215d565b50505b8015611d03576002546040517f70a0823100000000000000000000000000000000000000000000000000000000815230600482015260009173ffffffffffffffffffffffffffffffffffffffff16906370a082319060240160206040518083038186803b158015611c3757600080fd5b505afa158015611c4b573d6000803e3d6000fd5b505050506040513d601f19601f82011682018060405250810190611c6f9190612193565b905080821115611c7d578091505b6002546040517f42966c680000000000000000000000000000000000000000000000000000000081526004810184905273ffffffffffffffffffffffffffffffffffffffff909116906342966c6890602401600060405180830381600087803b158015611ce957600080fd5b505af1158015611cfd573d6000803e3d6000fd5b50505050505b60405133907febc30f0f6830190d829077dd2f90a0c61437787593e0d5c7d1cf3e74d97fdee190600090a2505050565b600080600260009054906101000a900473ffffffffffffffffffffffffffffffffffffffff1673ffffffffffffffffffffffffffffffffffffffff166318160ddd6040518163ffffffff1660e01b815260040160206040518083038186803b158015611d9e57600080fd5b505afa158015611db2573d6000803e3d6000fd5b505050506040513d601f19601f82011682018060405250810190611dd69190612193565b90506000611de44785611e47565b9050811580611df1575080155b15611e055750655af3107a40009392505050565b611e1b8261058783670de0b6b3a7640000611e23565b949350505050565b600061058d82846122f0565b600061058d82846122dc565b600061058d82846123a1565b600061058d828461232d565b600061058d82846122c4565b33600090815260056020908152604080832060069092529091208154829063ffffffff8516908110611e9357611e93612442565b60009182526020808320600880840490910154855460018181018855968652929094209082040180546007928316600490810261010090810a63ffffffff9590961691909102900a9094048216830292909102199092161790558154611ef9919061232d565b8263ffffffff161015611f985780548190611f169060019061232d565b81548110611f2657611f26612442565b90600052602060002090600891828204019190066004029054906101000a900463ffffffff16818363ffffffff1681548110611f6457611f64612442565b90600052602060002090600891828204019190066004026101000a81548163ffffffff021916908363ffffffff1602179055505b80805480611fa857611fa8612413565b60008281526020902060087fffffffffffffffffffffffffffffffffffffffffffffffffffffffffffffffff90920191820401805463ffffffff600460078516026101000a021916905590555050565b803573ffffffffffffffffffffffffffffffffffffffff8116811461201c57600080fd5b919050565b803563ffffffff8116811461201c57600080fd5b60006020828403121561204757600080fd5b61058d82611ff8565b6000806040838503121561206357600080fd5b61206c83611ff8565b946020939093013593505050565b6000602080838503121561208d57600080fd5b825167ffffffffffffffff808211156120a557600080fd5b818501915085601f8301126120b957600080fd5b8151818111156120cb576120cb612471565b8060051b6040517fffffffffffffffffffffffffffffffffffffffffffffffffffffffffffffffe0603f8301168101818110858211171561210e5761210e612471565b604052828152858101935084860182860187018a101561212d57600080fd5b600095505b83861015612150578051855260019590950194938601938601612132565b5098975050505050505050565b60006020828403121561216f57600080fd5b815161058d816124a0565b60006020828403121561218c57600080fd5b5035919050565b6000602082840312156121a557600080fd5b5051919050565b600080604083850312156121bf57600080fd5b50508035926020909101359150565b6000602082840312156121e057600080fd5b61058d82612021565b600080604083850312156121fc57600080fd5b61220583612021565b91506020830135612215816124a0565b809150509250929050565b60008060006060848603121561223557600080fd5b61223e84612021565b9250602084013591506040840135612255816124a0565b809150509250925092565b6000604082018483526020604081850152818551808452606086019150828701935060005b818110156122b757845173ffffffffffffffffffffffffffffffffffffffff1683529383019391830191600101612285565b5090979650505050505050565b600082198211156122d7576122d76123b5565b500190565b6000826122eb576122eb6123e4565b500490565b6000817fffffffffffffffffffffffffffffffffffffffffffffffffffffffffffffffff0483118215151615612328576123286123b5565b500290565b60008282101561233f5761233f6123b5565b500390565b60007fffffffffffffffffffffffffffffffffffffffffffffffffffffffffffffffff821415612376576123766123b5565b5060010190565b600063ffffffff80831681811415612397576123976123b5565b6001019392505050565b6000826123b0576123b06123e4565b500690565b7f4e487b7100000000000000000000000000000000000000000000000000000000600052601160045260246000fd5b7f4e487b7100000000000000000000000000000000000000000000000000000000600052601260045260246000fd5b7f4e487b7100000000000000000000000000000000000000000000000000000000600052603160045260246000fd5b7f4e487b7100000000000000000000000000000000000000000000000000000000600052603260045260246000fd5b7f4e487b7100000000000000000000000000000000000000000000000000000000600052604160045260246000fd5b80151581146124ae57600080fd5b5056fea26469706673582212200029d101f14fa3cd6833f2f739fb8487c8eb32f37661b9461cf36b48dc19af1364736f6c6343000807003360806040523480156200001157600080fd5b50604051806040016040528060038152602001622134b760e91b815250604051806040016040528060038152602001622124a760e91b8152508181816005908051906020019062000064929190620003f3565b5080516200007a906006906020840190620003f3565b50506007805460ff19169055506200009460003362000102565b620000c07f9f2df0fed2c77648de5860a4cc508cd0818c85b8b8a1ab4ceeef8d981c8956a63362000102565b620000ec7f65d7a28e3265b37a6474929f336521b332c1681b933f6cb9f3376673440d862a3362000102565b50620000fc905033600062000145565b620004fd565b6200011982826200023d60201b62000abd1760201c565b60008281526001602090815260409091206200014091839062000ac762000249821b17901c565b505050565b6001600160a01b038216620001a15760405162461bcd60e51b815260206004820152601f60248201527f45524332303a206d696e7420746f20746865207a65726f20616464726573730060448201526064015b60405180910390fd5b620001af6000838362000269565b8060046000828254620001c3919062000499565b90915550506001600160a01b03821660009081526002602052604081208054839290620001f290849062000499565b90915550506040518181526001600160a01b038316906000907fddf252ad1be2c89b69c2b068fc378daa952ba7f163c4a11628f55a4df523b3ef9060200160405180910390a35b5050565b62000239828262000281565b600062000260836001600160a01b03841662000321565b90505b92915050565b620001408383836200037360201b62000ae91760201c565b6000828152602081815260408083206001600160a01b038516845290915290205460ff1662000239576000828152602081815260408083206001600160a01b03851684529091529020805460ff19166001179055620002dd3390565b6001600160a01b0316816001600160a01b0316837f2f8788117e7eff1d82e926ec794901d17c78024a50270940304540a733656f0d60405160405180910390a45050565b60008181526001830160205260408120546200036a5750815460018181018455600084815260208082209093018490558454848252828601909352604090209190915562000263565b50600062000263565b6200038b8383836200014060201b620006981760201c565b60075460ff1615620001405760405162461bcd60e51b815260206004820152602a60248201527f45524332305061757361626c653a20746f6b656e207472616e736665722077686044820152691a5b19481c185d5cd95960b21b606482015260840162000198565b8280546200040190620004c0565b90600052602060002090601f01602090048101928262000425576000855562000470565b82601f106200044057805160ff191683800117855562000470565b8280016001018555821562000470579182015b828111156200047057825182559160200191906001019062000453565b506200047e92915062000482565b5090565b5b808211156200047e576000815560010162000483565b60008219821115620004bb57634e487b7160e01b600052601160045260246000fd5b500190565b600181811c90821680620004d557607f821691505b60208210811415620004f757634e487b7160e01b600052602260045260246000fd5b50919050565b611fa6806200050d6000396000f3fe608060405234801561001057600080fd5b50600436106101c45760003560e01c806370a08231116100f9578063a457c2d711610097578063d539139311610071578063d5391393146103fa578063d547741f14610421578063dd62ed3e14610434578063e63ab1e91461047a57600080fd5b8063a457c2d7146103c1578063a9059cbb146103d4578063ca15c873146103e757600080fd5b80639010d07c116100d35780639010d07c1461033557806391d148541461036d57806395d89b41146103b1578063a217fddf146103b957600080fd5b806370a08231146102e457806379cc67901461031a5780638456cb591461032d57600080fd5b8063313ce567116101665780633f4ba83a116101405780633f4ba83a146102ab57806340c10f19146102b357806342966c68146102c65780635c975abb146102d957600080fd5b8063313ce5671461027657806336568abe14610285578063395093511461029857600080fd5b806318160ddd116101a257806318160ddd1461021957806323b872dd1461022b578063248a9ca31461023e5780632f2ff15d1461026157600080fd5b806301ffc9a7146101c957806306fdde03146101f1578063095ea7b314610206575b600080fd5b6101dc6101d7366004611c7f565b6104a1565b60405190151581526020015b60405180910390f35b6101f96104fd565b6040516101e89190611d42565b6101dc610214366004611bf7565b61058f565b6004545b6040519081526020016101e8565b6101dc610239366004611bbb565b6105a5565b61021d61024c366004611c21565b60009081526020819052604090206001015490565b61027461026f366004611c3a565b610676565b005b604051601281526020016101e8565b610274610293366004611c3a565b61069d565b6101dc6102a6366004611bf7565b6106bf565b610274610708565b6102746102c1366004611bf7565b6107ae565b6102746102d4366004611c21565b610858565b60075460ff166101dc565b61021d6102f2366004611b6d565b73ffffffffffffffffffffffffffffffffffffffff1660009081526002602052604090205490565b610274610328366004611bf7565b610865565b6102746108ff565b610348610343366004611c5d565b6109a3565b60405173ffffffffffffffffffffffffffffffffffffffff90911681526020016101e8565b6101dc61037b366004611c3a565b60009182526020828152604080842073ffffffffffffffffffffffffffffffffffffffff93909316845291905290205460ff1690565b6101f96109c2565b61021d600081565b6101dc6103cf366004611bf7565b6109d1565b6101dc6103e2366004611bf7565b610a8f565b61021d6103f5366004611c21565b610a9c565b61021d7f9f2df0fed2c77648de5860a4cc508cd0818c85b8b8a1ab4ceeef8d981c8956a681565b61027461042f366004611c3a565b610ab3565b61021d610442366004611b88565b73ffffffffffffffffffffffffffffffffffffffff918216600090815260036020908152604080832093909416825291909152205490565b61021d7f65d7a28e3265b37a6474929f336521b332c1681b933f6cb9f3376673440d862a81565b60007fffffffff0000000000000000000000000000000000000000000000000000000082167f5a05180f0000000000000000000000000000000000000000000000000000000014806104f757506104f782610b62565b92915050565b60606005805461050c90611e60565b80601f016020809104026020016040519081016040528092919081815260200182805461053890611e60565b80156105855780601f1061055a57610100808354040283529160200191610585565b820191906000526020600020905b81548152906001019060200180831161056857829003601f168201915b5050505050905090565b600061059c338484610bf9565b50600192915050565b60006105b2848484610d78565b73ffffffffffffffffffffffffffffffffffffffff841660009081526003602090815260408083203384529091529020548281101561065e5760405162461bcd60e51b815260206004820152602860248201527f45524332303a207472616e7366657220616d6f756e742065786365656473206160448201527f6c6c6f77616e636500000000000000000000000000000000000000000000000060648201526084015b60405180910390fd5b61066b8533858403610bf9565b506001949350505050565b6106808282610fea565b60008281526001602052604090206106989082610ac7565b505050565b6106a78282611010565b600082815260016020526040902061069890826110a5565b33600081815260036020908152604080832073ffffffffffffffffffffffffffffffffffffffff87168452909152812054909161059c918590610703908690611d93565b610bf9565b6107327f65d7a28e3265b37a6474929f336521b332c1681b933f6cb9f3376673440d862a3361037b565b6107a45760405162461bcd60e51b815260206004820152603960248201527f45524332305072657365744d696e7465725061757365723a206d75737420686160448201527f76652070617573657220726f6c6520746f20756e7061757365000000000000006064820152608401610655565b6107ac6110c7565b565b6107d87f9f2df0fed2c77648de5860a4cc508cd0818c85b8b8a1ab4ceeef8d981c8956a63361037b565b61084a5760405162461bcd60e51b815260206004820152603660248201527f45524332305072657365744d696e7465725061757365723a206d75737420686160448201527f7665206d696e74657220726f6c6520746f206d696e74000000000000000000006064820152608401610655565b610854828261118e565b5050565b61086233826112a0565b50565b60006108718333610442565b9050818110156108e85760405162461bcd60e51b8152602060048201526024808201527f45524332303a206275726e20616d6f756e74206578636565647320616c6c6f7760448201527f616e6365000000000000000000000000000000000000000000000000000000006064820152608401610655565b6108f58333848403610bf9565b61069883836112a0565b6109297f65d7a28e3265b37a6474929f336521b332c1681b933f6cb9f3376673440d862a3361037b565b61099b5760405162461bcd60e51b815260206004820152603760248201527f45524332305072657365744d696e7465725061757365723a206d75737420686160448201527f76652070617573657220726f6c6520746f2070617573650000000000000000006064820152608401610655565b6107ac611465565b60008281526001602052604081206109bb908361150b565b9392505050565b60606006805461050c90611e60565b33600090815260036020908152604080832073ffffffffffffffffffffffffffffffffffffffff8616845290915281205482811015610a785760405162461bcd60e51b815260206004820152602560248201527f45524332303a2064656372656173656420616c6c6f77616e63652062656c6f7760448201527f207a65726f0000000000000000000000000000000000000000000000000000006064820152608401610655565b610a853385858403610bf9565b5060019392505050565b600061059c338484610d78565b60008181526001602052604081206104f790611517565b6106a78282611521565b6108548282611547565b60006109bb8373ffffffffffffffffffffffffffffffffffffffff8416611637565b60075460ff16156106985760405162461bcd60e51b815260206004820152602a60248201527f45524332305061757361626c653a20746f6b656e207472616e7366657220776860448201527f696c6520706175736564000000000000000000000000000000000000000000006064820152608401610655565b60007fffffffff0000000000000000000000000000000000000000000000000000000082167f7965db0b0000000000000000000000000000000000000000000000000000000014806104f757507f01ffc9a7000000000000000000000000000000000000000000000000000000007fffffffff000000000000000000000000000000000000000000000000000000008316146104f7565b73ffffffffffffffffffffffffffffffffffffffff8316610c815760405162461bcd60e51b8152602060048201526024808201527f45524332303a20617070726f76652066726f6d20746865207a65726f2061646460448201527f72657373000000000000000000000000000000000000000000000000000000006064820152608401610655565b73ffffffffffffffffffffffffffffffffffffffff8216610d0a5760405162461bcd60e51b815260206004820152602260248201527f45524332303a20617070726f766520746f20746865207a65726f20616464726560448201527f73730000000000000000000000000000000000000000000000000000000000006064820152608401610655565b73ffffffffffffffffffffffffffffffffffffffff83811660008181526003602090815260408083209487168084529482529182902085905590518481527f8c5be1e5ebec7d5bd14f71427d1e84f3dd0314c0f7b2291e5b200ac8c7c3b925910160405180910390a3505050565b73ffffffffffffffffffffffffffffffffffffffff8316610e015760405162461bcd60e51b815260206004820152602560248201527f45524332303a207472616e736665722066726f6d20746865207a65726f20616460448201527f64726573730000000000000000000000000000000000000000000000000000006064820152608401610655565b73ffffffffffffffffffffffffffffffffffffffff8216610e8a5760405162461bcd60e51b815260206004820152602360248201527f45524332303a207472616e7366657220746f20746865207a65726f206164647260448201527f65737300000000000000000000000000000000000000000000000000000000006064820152608401610655565b610e95838383611686565b73ffffffffffffffffffffffffffffffffffffffff831660009081526002602052604090205481811015610f315760405162461bcd60e51b815260206004820152602660248201527f45524332303a207472616e7366657220616d6f756e742065786365656473206260448201527f616c616e636500000000000000000000000000000000000000000000000000006064820152608401610655565b73ffffffffffffffffffffffffffffffffffffffff808516600090815260026020526040808220858503905591851681529081208054849290610f75908490611d93565b925050819055508273ffffffffffffffffffffffffffffffffffffffff168473ffffffffffffffffffffffffffffffffffffffff167fddf252ad1be2c89b69c2b068fc378daa952ba7f163c4a11628f55a4df523b3ef84604051610fdb91815260200190565b60405180910390a35b50505050565b6000828152602081905260409020600101546110068133611691565b6106988383611547565b73ffffffffffffffffffffffffffffffffffffffff8116331461109b5760405162461bcd60e51b815260206004820152602f60248201527f416363657373436f6e74726f6c3a2063616e206f6e6c792072656e6f756e636560448201527f20726f6c657320666f722073656c6600000000000000000000000000000000006064820152608401610655565b6108548282611747565b60006109bb8373ffffffffffffffffffffffffffffffffffffffff84166117fe565b60075460ff166111195760405162461bcd60e51b815260206004820152601460248201527f5061757361626c653a206e6f74207061757365640000000000000000000000006044820152606401610655565b600780547fffffffffffffffffffffffffffffffffffffffffffffffffffffffffffffff001690557f5db9ee0a495bf2e6ff9c91a7834c1ba4fdd244a5e8aa4e537bd38aeae4b073aa335b60405173ffffffffffffffffffffffffffffffffffffffff909116815260200160405180910390a1565b73ffffffffffffffffffffffffffffffffffffffff82166111f15760405162461bcd60e51b815260206004820152601f60248201527f45524332303a206d696e7420746f20746865207a65726f2061646472657373006044820152606401610655565b6111fd60008383611686565b806004600082825461120f9190611d93565b909155505073ffffffffffffffffffffffffffffffffffffffff821660009081526002602052604081208054839290611249908490611d93565b909155505060405181815273ffffffffffffffffffffffffffffffffffffffff8316906000907fddf252ad1be2c89b69c2b068fc378daa952ba7f163c4a11628f55a4df523b3ef9060200160405180910390a35050565b73ffffffffffffffffffffffffffffffffffffffff82166113295760405162461bcd60e51b815260206004820152602160248201527f45524332303a206275726e2066726f6d20746865207a65726f2061646472657360448201527f73000000000000000000000000000000000000000000000000000000000000006064820152608401610655565b61133582600083611686565b73ffffffffffffffffffffffffffffffffffffffff8216600090815260026020526040902054818110156113d15760405162461bcd60e51b815260206004820152602260248201527f45524332303a206275726e20616d6f756e7420657863656564732062616c616e60448201527f63650000000000000000000000000000000000000000000000000000000000006064820152608401610655565b73ffffffffffffffffffffffffffffffffffffffff8316600090815260026020526040812083830390556004805484929061140d908490611de8565b909155505060405182815260009073ffffffffffffffffffffffffffffffffffffffff8516907fddf252ad1be2c89b69c2b068fc378daa952ba7f163c4a11628f55a4df523b3ef9060200160405180910390a3505050565b60075460ff16156114b85760405162461bcd60e51b815260206004820152601060248201527f5061757361626c653a20706175736564000000000000000000000000000000006044820152606401610655565b600780547fffffffffffffffffffffffffffffffffffffffffffffffffffffffffffffff001660011790557f62e78cea01bee320cd4e420270b5ea74000d11b0c9f74754ebdbfc544b05a2586111643390565b60006109bb83836118f1565b60006104f7825490565b60008281526020819052604090206001015461153d8133611691565b6106988383611747565b60008281526020818152604080832073ffffffffffffffffffffffffffffffffffffffff8516845290915290205460ff166108545760008281526020818152604080832073ffffffffffffffffffffffffffffffffffffffff85168452909152902080547fffffffffffffffffffffffffffffffffffffffffffffffffffffffffffffff001660011790556115d93390565b73ffffffffffffffffffffffffffffffffffffffff168173ffffffffffffffffffffffffffffffffffffffff16837f2f8788117e7eff1d82e926ec794901d17c78024a50270940304540a733656f0d60405160405180910390a45050565b600081815260018301602052604081205461167e575081546001818101845560008481526020808220909301849055845484825282860190935260409020919091556104f7565b5060006104f7565b610698838383610ae9565b60008281526020818152604080832073ffffffffffffffffffffffffffffffffffffffff8516845290915290205460ff16610854576116e78173ffffffffffffffffffffffffffffffffffffffff16601461191b565b6116f283602061191b565b604051602001611703929190611cc1565b604080517fffffffffffffffffffffffffffffffffffffffffffffffffffffffffffffffe08184030181529082905262461bcd60e51b825261065591600401611d42565b60008281526020818152604080832073ffffffffffffffffffffffffffffffffffffffff8516845290915290205460ff16156108545760008281526020818152604080832073ffffffffffffffffffffffffffffffffffffffff8516808552925280832080547fffffffffffffffffffffffffffffffffffffffffffffffffffffffffffffff0016905551339285917ff6391f5c32d9c69d2a47ea670b442974b53935d1edc7fd64eb21e047a839171b9190a45050565b600081815260018301602052604081205480156118e7576000611822600183611de8565b855490915060009061183690600190611de8565b905081811461189b57600086600001828154811061185657611856611f12565b906000526020600020015490508087600001848154811061187957611879611f12565b6000918252602080832090910192909255918252600188019052604090208390555b85548690806118ac576118ac611ee3565b6001900381819060005260206000200160009055905585600101600086815260200190815260200160002060009055600193505050506104f7565b60009150506104f7565b600082600001828154811061190857611908611f12565b9060005260206000200154905092915050565b6060600061192a836002611dab565b611935906002611d93565b67ffffffffffffffff81111561194d5761194d611f41565b6040519080825280601f01601f191660200182016040528015611977576020820181803683370190505b5090507f3000000000000000000000000000000000000000000000000000000000000000816000815181106119ae576119ae611f12565b60200101907effffffffffffffffffffffffffffffffffffffffffffffffffffffffffffff1916908160001a9053507f780000000000000000000000000000000000000000000000000000000000000081600181518110611a1157611a11611f12565b60200101907effffffffffffffffffffffffffffffffffffffffffffffffffffffffffffff1916908160001a9053506000611a4d846002611dab565b611a58906001611d93565b90505b6001811115611af5577f303132333435363738396162636465660000000000000000000000000000000085600f1660108110611a9957611a99611f12565b1a60f81b828281518110611aaf57611aaf611f12565b60200101907effffffffffffffffffffffffffffffffffffffffffffffffffffffffffffff1916908160001a90535060049490941c93611aee81611e2b565b9050611a5b565b5083156109bb5760405162461bcd60e51b815260206004820181905260248201527f537472696e67733a20686578206c656e67746820696e73756666696369656e746044820152606401610655565b803573ffffffffffffffffffffffffffffffffffffffff81168114611b6857600080fd5b919050565b600060208284031215611b7f57600080fd5b6109bb82611b44565b60008060408385031215611b9b57600080fd5b611ba483611b44565b9150611bb260208401611b44565b90509250929050565b600080600060608486031215611bd057600080fd5b611bd984611b44565b9250611be760208501611b44565b9150604084013590509250925092565b60008060408385031215611c0a57600080fd5b611c1383611b44565b946020939093013593505050565b600060208284031215611c3357600080fd5b5035919050565b60008060408385031215611c4d57600080fd5b82359150611bb260208401611b44565b60008060408385031215611c7057600080fd5b50508035926020909101359150565b600060208284031215611c9157600080fd5b81357fffffffff00000000000000000000000000000000000000000000000000000000811681146109bb57600080fd5b7f416363657373436f6e74726f6c3a206163636f756e7420000000000000000000815260008351611cf9816017850160208801611dff565b7f206973206d697373696e6720726f6c65200000000000000000000000000000006017918401918201528351611d36816028840160208801611dff565b01602801949350505050565b6020815260008251806020840152611d61816040850160208701611dff565b601f017fffffffffffffffffffffffffffffffffffffffffffffffffffffffffffffffe0169190910160400192915050565b60008219821115611da657611da6611eb4565b500190565b6000817fffffffffffffffffffffffffffffffffffffffffffffffffffffffffffffffff0483118215151615611de357611de3611eb4565b500290565b600082821015611dfa57611dfa611eb4565b500390565b60005b83811015611e1a578181015183820152602001611e02565b83811115610fe45750506000910152565b600081611e3a57611e3a611eb4565b507fffffffffffffffffffffffffffffffffffffffffffffffffffffffffffffffff0190565b600181811c90821680611e7457607f821691505b60208210811415611eae577f4e487b7100000000000000000000000000000000000000000000000000000000600052602260045260246000fd5b50919050565b7f4e487b7100000000000000000000000000000000000000000000000000000000600052601160045260246000fd5b7f4e487b7100000000000000000000000000000000000000000000000000000000600052603160045260246000fd5b7f4e487b7100000000000000000000000000000000000000000000000000000000600052603260045260246000fd5b7f4e487b7100000000000000000000000000000000000000000000000000000000600052604160045260246000fdfea26469706673582212202be90ef9ec2067d4c7ad60ec941957f15bcb72c0adfc7eb2babbc91a35e4a7d964736f6c63430008070033",
  "linkReferences": {},
  "deployedLinkReferences": {}
}