{
  "contractName": "BinaryOptions",
  "abi": [
    {
      "inputs": [],
      "payable": false,
      "stateMutability": "nonpayable",
      "type": "constructor"
    },
    {
      "constant": true,
      "inputs": [
        {
          "internalType": "uint256",
          "name": "",
          "type": "uint256"
        }
      ],
      "name": "ethOpts",
      "outputs": [
        {
          "internalType": "uint256",
          "name": "strike",
          "type": "uint256"
        },
        {
          "internalType": "uint256",
          "name": "premium",
          "type": "uint256"
        },
        {
          "internalType": "uint256",
          "name": "expiry",
          "type": "uint256"
        },
        {
          "internalType": "uint256",
          "name": "amount",
          "type": "uint256"
        },
        {
          "internalType": "bool",
          "name": "exercised",
          "type": "bool"
        },
        {
          "internalType": "bool",
          "name": "canceled",
          "type": "bool"
        },
        {
          "internalType": "uint256",
          "name": "id",
          "type": "uint256"
        },
        {
          "internalType": "uint256",
          "name": "latestCost",
          "type": "uint256"
        },
        {
          "internalType": "address payable",
          "name": "writer",
          "type": "address"
        },
        {
          "internalType": "address payable",
          "name": "buyer",
          "type": "address"
        }
      ],
      "payable": false,
      "stateMutability": "view",
      "type": "function"
    },
    {
      "constant": true,
      "inputs": [
        {
          "internalType": "uint256",
          "name": "",
          "type": "uint256"
        }
      ],
      "name": "linkOpts",
      "outputs": [
        {
          "internalType": "uint256",
          "name": "strike",
          "type": "uint256"
        },
        {
          "internalType": "uint256",
          "name": "premium",
          "type": "uint256"
        },
        {
          "internalType": "uint256",
          "name": "expiry",
          "type": "uint256"
        },
        {
          "internalType": "uint256",
          "name": "amount",
          "type": "uint256"
        },
        {
          "internalType": "bool",
          "name": "exercised",
          "type": "bool"
        },
        {
          "internalType": "bool",
          "name": "canceled",
          "type": "bool"
        },
        {
          "internalType": "uint256",
          "name": "id",
          "type": "uint256"
        },
        {
          "internalType": "uint256",
          "name": "latestCost",
          "type": "uint256"
        },
        {
          "internalType": "address payable",
          "name": "writer",
          "type": "address"
        },
        {
          "internalType": "address payable",
          "name": "buyer",
          "type": "address"
        }
      ],
      "payable": false,
      "stateMutability": "view",
      "type": "function"
    },
    {
      "constant": true,
      "inputs": [],
      "name": "getTest",
      "outputs": [
        {
          "internalType": "uint256",
          "name": "",
          "type": "uint256"
        }
      ],
      "payable": false,
      "stateMutability": "view",
      "type": "function"
    },
    {
      "constant": true,
      "inputs": [],
      "name": "getLinkPrice",
      "outputs": [
        {
          "internalType": "uint256",
          "name": "",
          "type": "uint256"
        }
      ],
      "payable": false,
      "stateMutability": "view",
      "type": "function"
    },
    {
      "constant": true,
      "inputs": [],
      "name": "getEthPrice",
      "outputs": [
        {
          "internalType": "uint256",
          "name": "",
          "type": "uint256"
        }
      ],
      "payable": false,
      "stateMutability": "view",
      "type": "function"
    }
  ],
  "bytecode": "0x608060405260405160200180807f455448000000000000000000000000000000000000000000000000000000000081525060030190506040516020818303038152906040528051906020012060055560405160200180807f4c494e4b000000000000000000000000000000000000000000000000000000008152506004019050604051602081830303815290604052805190602001206006553480156100a457600080fd5b50739326bfa02add2366b30bacb125260af6410313316000806101000a81548173ffffffffffffffffffffffffffffffffffffffff021916908373ffffffffffffffffffffffffffffffffffffffff16021790555073396c5e36dd0a0f5a5d33dae44368d4193f69a1f0600160006101000a81548173ffffffffffffffffffffffffffffffffffffffff021916908373ffffffffffffffffffffffffffffffffffffffff16021790555073a36085f69e2889c224210f603d836748e7dc0088600260006101000a81548173ffffffffffffffffffffffffffffffffffffffff021916908373ffffffffffffffffffffffffffffffffffffffff16021790555030600760006101000a81548173ffffffffffffffffffffffffffffffffffffffff021916908373ffffffffffffffffffffffffffffffffffffffff1602179055506106e9806101f36000396000f3fe608060405234801561001057600080fd5b50600436106100575760003560e01c80631103f0c01461005c5780632dddd49c1461013d57806367c9b0171461015b578063a8cd0a8014610179578063bddd674c14610197575b600080fd5b6100886004803603602081101561007257600080fd5b8101908080359060200190929190505050610278565b604051808b81526020018a815260200189815260200188815260200187151515158152602001861515151581526020018581526020018481526020018373ffffffffffffffffffffffffffffffffffffffff1673ffffffffffffffffffffffffffffffffffffffff1681526020018273ffffffffffffffffffffffffffffffffffffffff1673ffffffffffffffffffffffffffffffffffffffff1681526020019a505050505050505050505060405180910390f35b610145610333565b6040518082815260200191505060405180910390f35b610163610492565b6040518082815260200191505060405180910390f35b6101816105f0565b6040518082815260200191505060405180910390f35b6101c3600480360360208110156101ad57600080fd5b81019080803590602001909291905050506105f9565b604051808b81526020018a815260200189815260200188815260200187151515158152602001861515151581526020018581526020018481526020018373ffffffffffffffffffffffffffffffffffffffff1673ffffffffffffffffffffffffffffffffffffffff1681526020018273ffffffffffffffffffffffffffffffffffffffff1673ffffffffffffffffffffffffffffffffffffffff1681526020019a505050505050505050505060405180910390f35b6008818154811061028557fe5b90600052602060002090600902016000915090508060000154908060010154908060020154908060030154908060040160009054906101000a900460ff16908060040160019054906101000a900460ff16908060050154908060060154908060070160009054906101000a900473ffffffffffffffffffffffffffffffffffffffff16908060080160009054906101000a900473ffffffffffffffffffffffffffffffffffffffff1690508a565b600080600080600080600160009054906101000a900473ffffffffffffffffffffffffffffffffffffffff1673ffffffffffffffffffffffffffffffffffffffff1663feaf968c6040518163ffffffff1660e01b815260040160a06040518083038186803b1580156103a457600080fd5b505afa1580156103b8573d6000803e3d6000fd5b505050506040513d60a08110156103ce57600080fd5b8101908080519060200190929190805190602001909291908051906020019092919080519060200190929190805190602001909291905050509450945094509450945060008211610487576040517f08c379a00000000000000000000000000000000000000000000000000000000081526004018080602001828103825260128152602001807f526f756e64206e6f7420636f6d706c657465000000000000000000000000000081525060200191505060405180910390fd5b839550505050505090565b6000806000806000806000809054906101000a900473ffffffffffffffffffffffffffffffffffffffff1673ffffffffffffffffffffffffffffffffffffffff1663feaf968c6040518163ffffffff1660e01b815260040160a06040518083038186803b15801561050257600080fd5b505afa158015610516573d6000803e3d6000fd5b505050506040513d60a081101561052c57600080fd5b81019080805190602001909291908051906020019092919080519060200190929190805190602001909291908051906020019092919050505094509450945094509450600082116105e5576040517f08c379a00000000000000000000000000000000000000000000000000000000081526004018080602001828103825260128152602001807f526f756e64206e6f7420636f6d706c657465000000000000000000000000000081525060200191505060405180910390fd5b839550505050505090565b6000600a905090565b6009818154811061060657fe5b90600052602060002090600902016000915090508060000154908060010154908060020154908060030154908060040160009054906101000a900460ff16908060040160019054906101000a900460ff16908060050154908060060154908060070160009054906101000a900473ffffffffffffffffffffffffffffffffffffffff16908060080160009054906101000a900473ffffffffffffffffffffffffffffffffffffffff1690508a56fea265627a7a72315820784ed94400306daf4dbdbc7ea4597b47b7a7ec87c7f8840b111f39951c45922164736f6c63430005100032",
  "source": "// SPDX-License-Identifier: MIT\npragma solidity >=0.5.16 <0.8.0;\n\nimport './LinkTokenInterface.sol';\nimport './AggregatorV3Interface.sol';\nimport './SafeMath.sol';\n\ncontract BinaryOptions {\n  //Overflow safe operators\n  using SafeMath for uint;\n  //Pricefeed interfaces\n  AggregatorV3Interface internal ethFeed;\n  AggregatorV3Interface internal linkFeed;\n  //Interface for LINK token functions\n  LinkTokenInterface internal LINK;\n  uint ethPrice;\n  uint linkPrice;\n  //Precomputing hash of strings\n  bytes32 ethHash = keccak256(abi.encodePacked('ETH'));\n  bytes32 linkHash = keccak256(abi.encodePacked('LINK'));\n  address payable contractAddr;\n  \n  //Options stored in arrays of structs\n  struct option {\n    uint strike; //Price in USD (18 decimal places) option allows buyer to purchase tokens at\n    uint premium; //Fee in contract token that option writer charges\n    uint expiry; //Unix timestamp of expiration time\n    uint amount; //Amount of tokens the option contract is for\n    bool exercised; //Has option been exercised\n    bool canceled; //Has option been canceled\n    uint id; //Unique ID of option, also array index\n    uint latestCost; //Helper to show last updated cost to exercise\n    address payable writer; //Issuer of option\n    address payable buyer; //Buyer of option\n  }\n  option[] public ethOpts;\n  option[] public linkOpts;\n\n  //Kovan feeds: https://docs.chain.link/docs/reference-contracts\n  constructor() public {\n    //ETH/USD Kovan feed\n    ethFeed = AggregatorV3Interface(0x9326BFA02ADD2366b30bacB125260Af641031331);\n    //LINK/USD Kovan feed\n    linkFeed = AggregatorV3Interface(0x396c5E36DD0a0F5a5D33dae44368D4193f69a1F0);\n    //LINK token address on Kovan\n    LINK = LinkTokenInterface(0xa36085F69e2889c224210F603D836748e7dC0088);\n    contractAddr = address(uint160(address(this)));\n  }\n\n  function getTest() public view returns (uint) {\n    return 10;\n  }\n\n  //Returns the latest LINK price\n  function getLinkPrice() public view returns (uint) {\n    (\n      uint80 roundID, \n      int price,\n      uint startedAt,\n      uint timeStamp,\n      uint80 answeredInRound\n    ) = linkFeed.latestRoundData();\n    // If the round is not complete yet, timestamp is 0\n    require(timeStamp > 0, 'Round not complete');\n    //Price should never be negative thus cast int to unit is ok\n    //Price is 8 decimal places and will require 1e10 correction later to 18 places\n    return uint(price);\n  }\n\n  //Returns the latest LINK price\n  function getEthPrice() public view returns (uint) {\n    (\n      uint80 roundID, \n      int price,\n      uint startedAt,\n      uint timeStamp,\n      uint80 answeredInRound\n    ) = ethFeed.latestRoundData();\n    // If the round is not complete yet, timestamp is 0\n    require(timeStamp > 0, 'Round not complete');\n    //Price should never be negative thus cast int to unit is ok\n    //Price is 8 decimal places and will require 1e10 correction later to 18 places\n    return uint(price);\n  }\n}\n",
  "sourcePath": "/Volumes/Samsung_T5/Development/Crypto/binary-options/contracts/BinaryOptions.sol",
  "compiler": {
    "name": "solc",
    "version": "0.5.16+commit.9c3226ce.Emscripten.clang"
  },
  "schemaVersion": "3.3.1",
  "updatedAt": "2020-10-29T02:47:50.356Z",
  "networkType": "ethereum",
  "devdoc": {
    "methods": {}
  },
  "userdoc": {
    "methods": {}
  }
}