{
  "contractName": "BinaryOptions",
  "abi": [
    {
      "inputs": [],
      "payable": false,
      "stateMutability": "nonpayable",
      "type": "constructor"
    },
    {
      "anonymous": false,
      "inputs": [
        {
          "indexed": false,
          "internalType": "uint256",
          "name": "amount",
          "type": "uint256"
        }
      ],
      "name": "Bought",
      "type": "event"
    },
    {
      "anonymous": false,
      "inputs": [
        {
          "indexed": false,
          "internalType": "uint256",
          "name": "amount",
          "type": "uint256"
        }
      ],
      "name": "Sold",
      "type": "event"
    },
    {
      "constant": true,
      "inputs": [
        {
          "internalType": "address",
          "name": "",
          "type": "address"
        },
        {
          "internalType": "uint256",
          "name": "",
          "type": "uint256"
        }
      ],
      "name": "collectedEthOps",
      "outputs": [
        {
          "internalType": "uint32",
          "name": "",
          "type": "uint32"
        }
      ],
      "payable": false,
      "stateMutability": "view",
      "type": "function"
    },
    {
      "constant": true,
      "inputs": [
        {
          "internalType": "uint256",
          "name": "",
          "type": "uint256"
        }
      ],
      "name": "ethOpts",
      "outputs": [
        {
          "internalType": "uint256",
          "name": "price",
          "type": "uint256"
        },
        {
          "internalType": "bool",
          "name": "higher",
          "type": "bool"
        },
        {
          "internalType": "uint32",
          "name": "execute",
          "type": "uint32"
        },
        {
          "internalType": "uint256",
          "name": "amount",
          "type": "uint256"
        },
        {
          "internalType": "uint32",
          "name": "id",
          "type": "uint32"
        },
        {
          "internalType": "uint256",
          "name": "payout",
          "type": "uint256"
        },
        {
          "internalType": "address payable",
          "name": "buyer",
          "type": "address"
        },
        {
          "internalType": "bool",
          "name": "winner",
          "type": "bool"
        }
      ],
      "payable": false,
      "stateMutability": "view",
      "type": "function"
    },
    {
      "constant": true,
      "inputs": [
        {
          "internalType": "uint32",
          "name": "",
          "type": "uint32"
        }
      ],
      "name": "ethRounds",
      "outputs": [
        {
          "internalType": "bool",
          "name": "executed",
          "type": "bool"
        },
        {
          "internalType": "uint256",
          "name": "price",
          "type": "uint256"
        },
        {
          "internalType": "uint256",
          "name": "higherAmount",
          "type": "uint256"
        },
        {
          "internalType": "uint256",
          "name": "lowerAmount",
          "type": "uint256"
        }
      ],
      "payable": false,
      "stateMutability": "view",
      "type": "function"
    },
    {
      "constant": true,
      "inputs": [
        {
          "internalType": "uint256",
          "name": "",
          "type": "uint256"
        }
      ],
      "name": "linkOpts",
      "outputs": [
        {
          "internalType": "uint256",
          "name": "price",
          "type": "uint256"
        },
        {
          "internalType": "bool",
          "name": "higher",
          "type": "bool"
        },
        {
          "internalType": "uint32",
          "name": "execute",
          "type": "uint32"
        },
        {
          "internalType": "uint256",
          "name": "amount",
          "type": "uint256"
        },
        {
          "internalType": "uint32",
          "name": "id",
          "type": "uint32"
        },
        {
          "internalType": "uint256",
          "name": "payout",
          "type": "uint256"
        },
        {
          "internalType": "address payable",
          "name": "buyer",
          "type": "address"
        },
        {
          "internalType": "bool",
          "name": "winner",
          "type": "bool"
        }
      ],
      "payable": false,
      "stateMutability": "view",
      "type": "function"
    },
    {
      "constant": true,
      "inputs": [
        {
          "internalType": "address",
          "name": "",
          "type": "address"
        },
        {
          "internalType": "uint256",
          "name": "",
          "type": "uint256"
        }
      ],
      "name": "pendingEthOps",
      "outputs": [
        {
          "internalType": "uint32",
          "name": "",
          "type": "uint32"
        }
      ],
      "payable": false,
      "stateMutability": "view",
      "type": "function"
    },
    {
      "constant": true,
      "inputs": [],
      "name": "token",
      "outputs": [
        {
          "internalType": "contract BinToken",
          "name": "",
          "type": "address"
        }
      ],
      "payable": false,
      "stateMutability": "view",
      "type": "function"
    },
    {
      "constant": true,
      "inputs": [],
      "name": "getLinkPrice",
      "outputs": [
        {
          "internalType": "uint256",
          "name": "",
          "type": "uint256"
        }
      ],
      "payable": false,
      "stateMutability": "view",
      "type": "function"
    },
    {
      "constant": true,
      "inputs": [],
      "name": "getEthPrice",
      "outputs": [
        {
          "internalType": "uint256",
          "name": "",
          "type": "uint256"
        }
      ],
      "payable": false,
      "stateMutability": "view",
      "type": "function"
    },
    {
      "constant": true,
      "inputs": [],
      "name": "getBinSupply",
      "outputs": [
        {
          "internalType": "uint256",
          "name": "",
          "type": "uint256"
        }
      ],
      "payable": false,
      "stateMutability": "view",
      "type": "function"
    },
    {
      "constant": true,
      "inputs": [],
      "name": "getCollateral",
      "outputs": [
        {
          "internalType": "uint256",
          "name": "",
          "type": "uint256"
        }
      ],
      "payable": false,
      "stateMutability": "view",
      "type": "function"
    },
    {
      "constant": true,
      "inputs": [],
      "name": "getPrice",
      "outputs": [
        {
          "internalType": "uint256",
          "name": "",
          "type": "uint256"
        }
      ],
      "payable": false,
      "stateMutability": "view",
      "type": "function"
    },
    {
      "constant": true,
      "inputs": [
        {
          "internalType": "uint256",
          "name": "amount",
          "type": "uint256"
        }
      ],
      "name": "ehterToBin",
      "outputs": [
        {
          "internalType": "uint256",
          "name": "",
          "type": "uint256"
        }
      ],
      "payable": false,
      "stateMutability": "view",
      "type": "function"
    },
    {
      "constant": true,
      "inputs": [
        {
          "internalType": "uint256",
          "name": "amount",
          "type": "uint256"
        }
      ],
      "name": "binToEther",
      "outputs": [
        {
          "internalType": "uint256",
          "name": "",
          "type": "uint256"
        }
      ],
      "payable": false,
      "stateMutability": "view",
      "type": "function"
    },
    {
      "constant": true,
      "inputs": [
        {
          "internalType": "uint32",
          "name": "timeStamp",
          "type": "uint32"
        }
      ],
      "name": "getPayOut",
      "outputs": [
        {
          "internalType": "uint256",
          "name": "",
          "type": "uint256"
        }
      ],
      "payable": false,
      "stateMutability": "view",
      "type": "function"
    },
    {
      "constant": false,
      "inputs": [],
      "name": "buy",
      "outputs": [],
      "payable": true,
      "stateMutability": "payable",
      "type": "function"
    },
    {
      "constant": false,
      "inputs": [
        {
          "internalType": "uint256",
          "name": "amount",
          "type": "uint256"
        }
      ],
      "name": "sell",
      "outputs": [],
      "payable": false,
      "stateMutability": "nonpayable",
      "type": "function"
    },
    {
      "constant": false,
      "inputs": [
        {
          "internalType": "uint32",
          "name": "timeStamp",
          "type": "uint32"
        },
        {
          "internalType": "uint256",
          "name": "amount",
          "type": "uint256"
        },
        {
          "internalType": "bool",
          "name": "higher",
          "type": "bool"
        }
      ],
      "name": "place",
      "outputs": [],
      "payable": false,
      "stateMutability": "nonpayable",
      "type": "function"
    },
    {
      "constant": false,
      "inputs": [
        {
          "internalType": "uint32",
          "name": "timeStamp",
          "type": "uint32"
        }
      ],
      "name": "executeRound",
      "outputs": [],
      "payable": false,
      "stateMutability": "nonpayable",
      "type": "function"
    },
    {
      "constant": false,
      "inputs": [],
      "name": "collect",
      "outputs": [],
      "payable": false,
      "stateMutability": "nonpayable",
      "type": "function"
    }
  ],
  "bytecode": "0x608060405260405160200180807f45544800000000000000000000000000000000000000000000000000000000008152506003019050604051602081830303815290604052805190602001206005553480156200005b57600080fd5b506040516200006a90620001b8565b604051809103906000f08015801562000087573d6000803e3d6000fd5b50600660006101000a81548173ffffffffffffffffffffffffffffffffffffffff021916908373ffffffffffffffffffffffffffffffffffffffff160217905550739326bfa02add2366b30bacb125260af641031331600160006101000a81548173ffffffffffffffffffffffffffffffffffffffff021916908373ffffffffffffffffffffffffffffffffffffffff16021790555073396c5e36dd0a0f5a5d33dae44368d4193f69a1f0600260006101000a81548173ffffffffffffffffffffffffffffffffffffffff021916908373ffffffffffffffffffffffffffffffffffffffff160217905550336000806101000a81548173ffffffffffffffffffffffffffffffffffffffff021916908373ffffffffffffffffffffffffffffffffffffffff160217905550620001c6565b6123058062002b2983390190565b61295380620001d66000396000f3fe6080604052600436106101145760003560e01c80638b1f840d116100a0578063c482a25a11610064578063c482a25a146105c4578063d502a28f14610632578063e4849b3214610681578063e5225381146106bc578063fc0c546a146106d357610114565b80638b1f840d1461041f57806398d5fdca146104745780639ff230301461049f578063a6f2ae3a146104ee578063bddd674c146104f857610114565b80632dddd49c116100e75780632dddd49c146102cc5780634b4fd3ba146102f75780635c1548fb1461034e57806367c9b01714610379578063720231fb146103a457610114565b80630c2cd9dc146101195780631103f0c0146101945780631886af231461026057806328f10c161461028b575b600080fd5b34801561012557600080fd5b506101726004803603604081101561013c57600080fd5b81019080803573ffffffffffffffffffffffffffffffffffffffff1690602001909291908035906020019092919050505061072a565b604051808263ffffffff1663ffffffff16815260200191505060405180910390f35b3480156101a057600080fd5b506101cd600480360360208110156101b757600080fd5b8101908080359060200190929190505050610770565b60405180898152602001881515151581526020018763ffffffff1663ffffffff1681526020018681526020018563ffffffff1663ffffffff1681526020018481526020018373ffffffffffffffffffffffffffffffffffffffff1673ffffffffffffffffffffffffffffffffffffffff168152602001821515151581526020019850505050505050505060405180910390f35b34801561026c57600080fd5b5061027561081f565b6040518082815260200191505060405180910390f35b34801561029757600080fd5b506102ca600480360360208110156102ae57600080fd5b81019080803563ffffffff1690602001909291905050506108c9565b005b3480156102d857600080fd5b506102e1610b3f565b6040518082815260200191505060405180910390f35b34801561030357600080fd5b5061034c6004803603606081101561031a57600080fd5b81019080803563ffffffff16906020019092919080359060200190929190803515159060200190929190505050610c9e565b005b34801561035a57600080fd5b506103636113c8565b6040518082815260200191505060405180910390f35b34801561038557600080fd5b5061038e6113d0565b6040518082815260200191505060405180910390f35b3480156103b057600080fd5b506103fd600480360360408110156103c757600080fd5b81019080803573ffffffffffffffffffffffffffffffffffffffff1690602001909291908035906020019092919050505061152f565b604051808263ffffffff1663ffffffff16815260200191505060405180910390f35b34801561042b57600080fd5b5061045e6004803603602081101561044257600080fd5b81019080803563ffffffff169060200190929190505050611575565b6040518082815260200191505060405180910390f35b34801561048057600080fd5b50610489611582565b6040518082815260200191505060405180910390f35b3480156104ab57600080fd5b506104d8600480360360208110156104c257600080fd5b810190808035906020019092919050505061168a565b6040518082815260200191505060405180910390f35b6104f66116cc565b005b34801561050457600080fd5b506105316004803603602081101561051b57600080fd5b810190808035906020019092919050505061186e565b60405180898152602001881515151581526020018763ffffffff1663ffffffff1681526020018681526020018563ffffffff1663ffffffff1681526020018481526020018373ffffffffffffffffffffffffffffffffffffffff1673ffffffffffffffffffffffffffffffffffffffff168152602001821515151581526020019850505050505050505060405180910390f35b3480156105d057600080fd5b50610603600480360360208110156105e757600080fd5b81019080803563ffffffff16906020019092919050505061191d565b604051808515151515815260200184815260200183815260200182815260200194505050505060405180910390f35b34801561063e57600080fd5b5061066b6004803603602081101561065557600080fd5b810190808035906020019092919050505061195a565b6040518082815260200191505060405180910390f35b34801561068d57600080fd5b506106ba600480360360208110156106a457600080fd5b810190808035906020019092919050505061199c565b005b3480156106c857600080fd5b506106d1611cc8565b005b3480156106df57600080fd5b506106e86121e4565b604051808273ffffffffffffffffffffffffffffffffffffffff1673ffffffffffffffffffffffffffffffffffffffff16815260200191505060405180910390f35b600b602052816000526040600020818154811061074357fe5b9060005260206000209060089182820401919006600402915091509054906101000a900463ffffffff1681565b6007818154811061077d57fe5b90600052602060002090600602016000915090508060000154908060010160009054906101000a900460ff16908060010160019054906101000a900463ffffffff16908060020154908060030160009054906101000a900463ffffffff16908060040154908060050160009054906101000a900473ffffffffffffffffffffffffffffffffffffffff16908060050160149054906101000a900460ff16905088565b6000600660009054906101000a900473ffffffffffffffffffffffffffffffffffffffff1673ffffffffffffffffffffffffffffffffffffffff166318160ddd6040518163ffffffff1660e01b815260040160206040518083038186803b15801561088957600080fd5b505afa15801561089d573d6000803e3d6000fd5b505050506040513d60208110156108b357600080fd5b8101908080519060200190929190505050905090565b6000809054906101000a900473ffffffffffffffffffffffffffffffffffffffff1673ffffffffffffffffffffffffffffffffffffffff163373ffffffffffffffffffffffffffffffffffffffff161461092257600080fd5b600061093f6102588363ffffffff1661220a90919063ffffffff16565b14610995576040517f08c379a000000000000000000000000000000000000000000000000000000000815260040180806020018281038252602681526020018061288d6026913960400191505060405180910390fd5b6000600960008363ffffffff1663ffffffff1681526020019081526020016000206000018054905011610a30576040517f08c379a00000000000000000000000000000000000000000000000000000000081526004018080602001828103825260198152602001807f4e6f206461746120666f722063757272656e7420726f756e640000000000000081525060200191505060405180910390fd5b600960008263ffffffff1663ffffffff16815260200190815260200160002060010160009054906101000a900460ff1615610ad3576040517f08c379a00000000000000000000000000000000000000000000000000000000081526004018080602001828103825260168152602001807f526f756e6420616c72656164792065786563757465640000000000000000000081525060200191505060405180910390fd5b6001600960008363ffffffff1663ffffffff16815260200190815260200160002060010160006101000a81548160ff021916908315150217905550610b166113d0565b600960008363ffffffff1663ffffffff1681526020019081526020016000206002018190555050565b600080600080600080600260009054906101000a900473ffffffffffffffffffffffffffffffffffffffff1673ffffffffffffffffffffffffffffffffffffffff1663feaf968c6040518163ffffffff1660e01b815260040160a06040518083038186803b158015610bb057600080fd5b505afa158015610bc4573d6000803e3d6000fd5b505050506040513d60a0811015610bda57600080fd5b8101908080519060200190929190805190602001909291908051906020019092919080519060200190929190805190602001909291905050509450945094509450945060008211610c93576040517f08c379a00000000000000000000000000000000000000000000000000000000081526004018080602001828103825260128152602001807f526f756e64206e6f7420636f6d706c657465000000000000000000000000000081525060200191505060405180910390fd5b839550505050505090565b60008211610d14576040517f08c379a00000000000000000000000000000000000000000000000000000000081526004018080602001828103825260198152602001807f596f75206e65656420746f2073656e6420736f6d652042494e0000000000000081525060200191505060405180910390fd5b6000600660009054906101000a900473ffffffffffffffffffffffffffffffffffffffff1673ffffffffffffffffffffffffffffffffffffffff1663dd62ed3e33306040518363ffffffff1660e01b8152600401808373ffffffffffffffffffffffffffffffffffffffff1673ffffffffffffffffffffffffffffffffffffffff1681526020018273ffffffffffffffffffffffffffffffffffffffff1673ffffffffffffffffffffffffffffffffffffffff1681526020019250505060206040518083038186803b158015610de957600080fd5b505afa158015610dfd573d6000803e3d6000fd5b505050506040513d6020811015610e1357600080fd5b8101908080519060200190929190505050905082811015610e9c576040517f08c379a00000000000000000000000000000000000000000000000000000000081526004018080602001828103825260198152602001807f436865636b2074686520746f6b656e20616c6c6f77616e63650000000000000081525060200191505060405180910390fd5b6000610ed9610258610ecb610ebc6102584261220a90919063ffffffff16565b4261225490919063ffffffff16565b61229e90919063ffffffff16565b9050808563ffffffff1611610f56576040517f08c379a000000000000000000000000000000000000000000000000000000000815260040180806020018281038252601c8152602001807f596f752063616e27742062657420666f72206e65787420726f756e640000000081525060200191505060405180910390fd5b6000610f736102588763ffffffff1661220a90919063ffffffff16565b14610fc9576040517f08c379a00000000000000000000000000000000000000000000000000000000081526004018080602001828103825260268152602001806128f96026913960400191505060405180910390fd5b600660009054906101000a900473ffffffffffffffffffffffffffffffffffffffff1673ffffffffffffffffffffffffffffffffffffffff166323b872dd3330876040518463ffffffff1660e01b8152600401808473ffffffffffffffffffffffffffffffffffffffff1673ffffffffffffffffffffffffffffffffffffffff1681526020018373ffffffffffffffffffffffffffffffffffffffff1673ffffffffffffffffffffffffffffffffffffffff1681526020018281526020019350505050602060405180830381600087803b1580156110a657600080fd5b505af11580156110ba573d6000803e3d6000fd5b505050506040513d60208110156110d057600080fd5b8101908080519060200190929190505050506000600960008763ffffffff1663ffffffff168152602001908152602001600020905083156111285761112285826003015461229e90919063ffffffff16565b50611141565b61113f85826004015461229e90919063ffffffff16565b505b600060078054905090508160000181908060018154018082558091505090600182039060005260206000209060089182820401919006600402909192909190916101000a81548163ffffffff021916908363ffffffff16021790555050600a60003373ffffffffffffffffffffffffffffffffffffffff1673ffffffffffffffffffffffffffffffffffffffff16815260200190815260200160002081908060018154018082558091505090600182039060005260206000209060089182820401919006600402909192909190916101000a81548163ffffffff021916908363ffffffff1602179055505060076040518061010001604052806112426113d0565b815260200187151581526020018963ffffffff1681526020018881526020018363ffffffff1681526020016112768a611575565b81526020013373ffffffffffffffffffffffffffffffffffffffff16815260200160001515815250908060018154018082558091505090600182039060005260206000209060060201600090919290919091506000820151816000015560208201518160010160006101000a81548160ff02191690831515021790555060408201518160010160016101000a81548163ffffffff021916908363ffffffff1602179055506060820151816002015560808201518160030160006101000a81548163ffffffff021916908363ffffffff16021790555060a0820151816004015560c08201518160050160006101000a81548173ffffffffffffffffffffffffffffffffffffffff021916908373ffffffffffffffffffffffffffffffffffffffff16021790555060e08201518160050160146101000a81548160ff02191690831515021790555050505050505050505050565b600047905090565b600080600080600080600160009054906101000a900473ffffffffffffffffffffffffffffffffffffffff1673ffffffffffffffffffffffffffffffffffffffff1663feaf968c6040518163ffffffff1660e01b815260040160a06040518083038186803b15801561144157600080fd5b505afa158015611455573d6000803e3d6000fd5b505050506040513d60a081101561146b57600080fd5b8101908080519060200190929190805190602001909291908051906020019092919080519060200190929190805190602001909291905050509450945094509450945060008211611524576040517f08c379a00000000000000000000000000000000000000000000000000000000081526004018080602001828103825260128152602001807f526f756e64206e6f7420636f6d706c657465000000000000000000000000000081525060200191505060405180910390fd5b839550505050505090565b600a602052816000526040600020818154811061154857fe5b9060005260206000209060089182820401919006600402915091509054906101000a900463ffffffff1681565b6000620138809050919050565b600080600660009054906101000a900473ffffffffffffffffffffffffffffffffffffffff1673ffffffffffffffffffffffffffffffffffffffff166318160ddd6040518163ffffffff1660e01b815260040160206040518083038186803b1580156115ed57600080fd5b505afa158015611601573d6000803e3d6000fd5b505050506040513d602081101561161757600080fd5b810190808051906020019092919050505090506000479050600082148061163e5750600081145b1561165557670de0b6b3a764000092505050611687565b61168282611674670de0b6b3a76400008461232690919063ffffffff16565b6123ac90919063ffffffff16565b925050505b90565b600080611695611582565b90506116c4816116b6670de0b6b3a76400008661232690919063ffffffff16565b6123ac90919063ffffffff16565b915050919050565b600034905060008111611747576040517f08c379a000000000000000000000000000000000000000000000000000000000815260040180806020018281038252601b8152602001807f596f75206e65656420746f2073656e6420736f6d65204574686572000000000081525060200191505060405180910390fd5b600660009054906101000a900473ffffffffffffffffffffffffffffffffffffffff1673ffffffffffffffffffffffffffffffffffffffff166340c10f193361178f8461168a565b6040518363ffffffff1660e01b8152600401808373ffffffffffffffffffffffffffffffffffffffff1673ffffffffffffffffffffffffffffffffffffffff16815260200182815260200192505050602060405180830381600087803b1580156117f857600080fd5b505af115801561180c573d6000803e3d6000fd5b505050506040513d602081101561182257600080fd5b8101908080519060200190929190505050507f4e08ba899977cf7d4c2964bce71c6b9a7ef76ee5166a4c1249a1e08016e33ef1816040518082815260200191505060405180910390a150565b6008818154811061187b57fe5b90600052602060002090600602016000915090508060000154908060010160009054906101000a900460ff16908060010160019054906101000a900463ffffffff16908060020154908060030160009054906101000a900463ffffffff16908060040154908060050160009054906101000a900473ffffffffffffffffffffffffffffffffffffffff16908060050160149054906101000a900460ff16905088565b60096020528060005260406000206000915090508060010160009054906101000a900460ff16908060020154908060030154908060040154905084565b600080611965611582565b9050611994670de0b6b3a7640000611986838661232690919063ffffffff16565b6123ac90919063ffffffff16565b915050919050565b600081116119f5576040517f08c379a00000000000000000000000000000000000000000000000000000000081526004018080602001828103825260258152602001806128b36025913960400191505060405180910390fd5b6000600660009054906101000a900473ffffffffffffffffffffffffffffffffffffffff1673ffffffffffffffffffffffffffffffffffffffff1663dd62ed3e33306040518363ffffffff1660e01b8152600401808373ffffffffffffffffffffffffffffffffffffffff1673ffffffffffffffffffffffffffffffffffffffff1681526020018273ffffffffffffffffffffffffffffffffffffffff1673ffffffffffffffffffffffffffffffffffffffff1681526020019250505060206040518083038186803b158015611aca57600080fd5b505afa158015611ade573d6000803e3d6000fd5b505050506040513d6020811015611af457600080fd5b8101908080519060200190929190505050905081811015611b7d576040517f08c379a00000000000000000000000000000000000000000000000000000000081526004018080602001828103825260198152602001807f436865636b2074686520746f6b656e20616c6c6f77616e63650000000000000081525060200191505060405180910390fd5b600660009054906101000a900473ffffffffffffffffffffffffffffffffffffffff1673ffffffffffffffffffffffffffffffffffffffff166379cc679033846040518363ffffffff1660e01b8152600401808373ffffffffffffffffffffffffffffffffffffffff1673ffffffffffffffffffffffffffffffffffffffff16815260200182815260200192505050600060405180830381600087803b158015611c2657600080fd5b505af1158015611c3a573d6000803e3d6000fd5b505050503373ffffffffffffffffffffffffffffffffffffffff166108fc611c618461195a565b9081150290604051600060405180830381858888f19350505050158015611c8c573d6000803e3d6000fd5b507f92f64ca637d023f354075a4be751b169c1a8a9ccb6d33cdd0cb3520543995727826040518082815260200191505060405180910390a15050565b6000600a60003373ffffffffffffffffffffffffffffffffffffffff1673ffffffffffffffffffffffffffffffffffffffff1681526020019081526020016000209050600080600090505b82805490508163ffffffff161015611e9f5760006007848363ffffffff1681548110611d3b57fe5b90600052602060002090600891828204019190066004029054906101000a900463ffffffff1663ffffffff1681548110611d7157fe5b906000526020600020906006020190506000600960008360010160019054906101000a900463ffffffff1663ffffffff1663ffffffff1681526020019081526020016000209050600081600001805490501415611dd657611dd1836123f6565b611e98565b8060010160009054906101000a900460ff1615611e8e5760008260010160009054906101000a900460ff16611e15578260000154826002015410611e21565b82600001548260020154115b90508015611e7f57611e5d6103e8611e4f8560040154620186a001866002015461232690919063ffffffff16565b6123ac90919063ffffffff16565b8501945060018360050160146101000a81548160ff0219169083151502179055505b611e88846123f6565b50611e97565b82806001019350505b5b5050611d13565b5060008111611f16576040517f08c379a00000000000000000000000000000000000000000000000000000000081526004018080602001828103825260128152602001807f4e6f7468696e6720746f20636f6c6c656374000000000000000000000000000081525060200191505060405180910390fd5b6000600660009054906101000a900473ffffffffffffffffffffffffffffffffffffffff1673ffffffffffffffffffffffffffffffffffffffff166370a08231306040518263ffffffff1660e01b8152600401808273ffffffffffffffffffffffffffffffffffffffff1673ffffffffffffffffffffffffffffffffffffffff16815260200191505060206040518083038186803b158015611fb757600080fd5b505afa158015611fcb573d6000803e3d6000fd5b505050506040513d6020811015611fe157600080fd5b81019080805190602001909291905050509050818110156120fa576000612011828461225490919063ffffffff16565b9050600660009054906101000a900473ffffffffffffffffffffffffffffffffffffffff1673ffffffffffffffffffffffffffffffffffffffff166340c10f1930836040518363ffffffff1660e01b8152600401808373ffffffffffffffffffffffffffffffffffffffff1673ffffffffffffffffffffffffffffffffffffffff16815260200182815260200192505050602060405180830381600087803b1580156120bc57600080fd5b505af11580156120d0573d6000803e3d6000fd5b505050506040513d60208110156120e657600080fd5b810190808051906020019092919050505050505b600660009054906101000a900473ffffffffffffffffffffffffffffffffffffffff1673ffffffffffffffffffffffffffffffffffffffff1663a9059cbb33846040518363ffffffff1660e01b8152600401808373ffffffffffffffffffffffffffffffffffffffff1673ffffffffffffffffffffffffffffffffffffffff16815260200182815260200192505050602060405180830381600087803b1580156121a357600080fd5b505af11580156121b7573d6000803e3d6000fd5b505050506040513d60208110156121cd57600080fd5b810190808051906020019092919050505050505050565b600660009054906101000a900473ffffffffffffffffffffffffffffffffffffffff1681565b600061224c83836040518060400160405280601881526020017f536166654d6174683a206d6f64756c6f206279207a65726f00000000000000008152506125e6565b905092915050565b600061229683836040518060400160405280601e81526020017f536166654d6174683a207375627472616374696f6e206f766572666c6f7700008152506126a7565b905092915050565b60008082840190508381101561231c576040517f08c379a000000000000000000000000000000000000000000000000000000000815260040180806020018281038252601b8152602001807f536166654d6174683a206164646974696f6e206f766572666c6f77000000000081525060200191505060405180910390fd5b8091505092915050565b60008083141561233957600090506123a6565b600082840290508284828161234a57fe5b04146123a1576040517f08c379a00000000000000000000000000000000000000000000000000000000081526004018080602001828103825260218152602001806128d86021913960400191505060405180910390fd5b809150505b92915050565b60006123ee83836040518060400160405280601a81526020017f536166654d6174683a206469766973696f6e206279207a65726f000000000000815250612767565b905092915050565b6000600a60003373ffffffffffffffffffffffffffffffffffffffff1673ffffffffffffffffffffffffffffffffffffffff1681526020019081526020016000209050600b60003373ffffffffffffffffffffffffffffffffffffffff1673ffffffffffffffffffffffffffffffffffffffff168152602001908152602001600020818363ffffffff168154811061248a57fe5b90600052602060002090600891828204019190066004029054906101000a900463ffffffff16908060018154018082558091505090600182039060005260206000209060089182820401919006600402909192909190916101000a81548163ffffffff021916908363ffffffff1602179055505060018180549050038263ffffffff161015612592578060018280549050038154811061252657fe5b90600052602060002090600891828204019190066004029054906101000a900463ffffffff16818363ffffffff168154811061255e57fe5b90600052602060002090600891828204019190066004026101000a81548163ffffffff021916908363ffffffff1602179055505b806001828054905003815481106125a557fe5b90600052602060002090600891828204019190066004026101000a81549063ffffffff0219169055808054809190600190036125e1919061282d565b505050565b6000808314158290612693576040517f08c379a00000000000000000000000000000000000000000000000000000000081526004018080602001828103825283818151815260200191508051906020019080838360005b8381101561265857808201518184015260208101905061263d565b50505050905090810190601f1680156126855780820380516001836020036101000a031916815260200191505b509250505060405180910390fd5b5082848161269d57fe5b0690509392505050565b6000838311158290612754576040517f08c379a00000000000000000000000000000000000000000000000000000000081526004018080602001828103825283818151815260200191508051906020019080838360005b838110156127195780820151818401526020810190506126fe565b50505050905090810190601f1680156127465780820380516001836020036101000a031916815260200191505b509250505060405180910390fd5b5060008385039050809150509392505050565b60008083118290612813576040517f08c379a00000000000000000000000000000000000000000000000000000000081526004018080602001828103825283818151815260200191508051906020019080838360005b838110156127d85780820151818401526020810190506127bd565b50505050905090810190601f1680156128055780820380516001836020036101000a031916815260200191505b509250505060405180910390fd5b50600083858161281f57fe5b049050809150509392505050565b8154818355818111156128625760070160089004816007016008900483600052602060002091820191016128619190612867565b5b505050565b61288991905b8082111561288557600081600090555060010161286d565b5090565b9056fe74696d655374616d70206d757374206265206d756c7469706c65206f6620696e74657276616c596f75206e65656420746f2073656c6c206174206c6561737420736f6d6520746f6b656e73536166654d6174683a206d756c7469706c69636174696f6e206f766572666c6f7754696d657374616d70206d757374206265206d756c7469706c65206f6620696e74657276616ca265627a7a72315820733d6b179d9c1cd6c58f018d619428a5251aacbd6cd5697a6a10e1ae7f3c41b364736f6c6343000510003260806040523480156200001157600080fd5b506040518060400160405280600381526020017f42696e00000000000000000000000000000000000000000000000000000000008152506040518060400160405280600381526020017f42494e0000000000000000000000000000000000000000000000000000000000815250601282600390805190602001906200009892919062000589565b508160049080519060200190620000b192919062000589565b5080600560006101000a81548160ff021916908360ff160217905550505050620000f0620000e46200010960201b60201c565b6200011160201b60201c565b620001033360006200017260201b60201c565b62000638565b600033905090565b6200012c8160066200033c60201b620018f31790919060201c565b8073ffffffffffffffffffffffffffffffffffffffff167f6ae172837ea30b801fbfcdd4108aa1d5bf8ff775444fd70256b44e6bf3dfc3f660405160405180910390a250565b600073ffffffffffffffffffffffffffffffffffffffff168273ffffffffffffffffffffffffffffffffffffffff16141562000216576040517f08c379a000000000000000000000000000000000000000000000000000000000815260040180806020018281038252601f8152602001807f45524332303a206d696e7420746f20746865207a65726f20616464726573730081525060200191505060405180910390fd5b62000232816002546200042060201b6200124d1790919060201c565b60028190555062000290816000808573ffffffffffffffffffffffffffffffffffffffff1673ffffffffffffffffffffffffffffffffffffffff168152602001908152602001600020546200042060201b6200124d1790919060201c565b6000808473ffffffffffffffffffffffffffffffffffffffff1673ffffffffffffffffffffffffffffffffffffffff168152602001908152602001600020819055508173ffffffffffffffffffffffffffffffffffffffff16600073ffffffffffffffffffffffffffffffffffffffff167fddf252ad1be2c89b69c2b068fc378daa952ba7f163c4a11628f55a4df523b3ef836040518082815260200191505060405180910390a35050565b6200034e8282620004a960201b60201c565b15620003c2576040517f08c379a000000000000000000000000000000000000000000000000000000000815260040180806020018281038252601f8152602001807f526f6c65733a206163636f756e7420616c72656164792068617320726f6c650081525060200191505060405180910390fd5b60018260000160008373ffffffffffffffffffffffffffffffffffffffff1673ffffffffffffffffffffffffffffffffffffffff16815260200190815260200160002060006101000a81548160ff0219169083151502179055505050565b6000808284019050838110156200049f576040517f08c379a000000000000000000000000000000000000000000000000000000000815260040180806020018281038252601b8152602001807f536166654d6174683a206164646974696f6e206f766572666c6f77000000000081525060200191505060405180910390fd5b8091505092915050565b60008073ffffffffffffffffffffffffffffffffffffffff168273ffffffffffffffffffffffffffffffffffffffff16141562000532576040517f08c379a0000000000000000000000000000000000000000000000000000000008152600401808060200182810382526022815260200180620022e36022913960400191505060405180910390fd5b8260000160008373ffffffffffffffffffffffffffffffffffffffff1673ffffffffffffffffffffffffffffffffffffffff16815260200190815260200160002060009054906101000a900460ff16905092915050565b828054600181600116156101000203166002900490600052602060002090601f016020900481019282601f10620005cc57805160ff1916838001178555620005fd565b82800160010185558215620005fd579182015b82811115620005fc578251825591602001919060010190620005df565b5b5090506200060c919062000610565b5090565b6200063591905b808211156200063157600081600090555060010162000617565b5090565b90565b611c9b80620006486000396000f3fe608060405234801561001057600080fd5b506004361061010b5760003560e01c806370a08231116100a257806398650275116100715780639865027514610528578063a457c2d714610532578063a9059cbb14610598578063aa271e1a146105fe578063dd62ed3e1461065a5761010b565b806370a08231146103bb57806379cc67901461041357806395d89b4114610461578063983b2d56146104e45761010b565b8063313ce567116100de578063313ce5671461029d57806339509351146102c157806340c10f191461032757806342966c681461038d5761010b565b806306fdde0314610110578063095ea7b31461019357806318160ddd146101f957806323b872dd14610217575b600080fd5b6101186106d2565b6040518080602001828103825283818151815260200191508051906020019080838360005b8381101561015857808201518184015260208101905061013d565b50505050905090810190601f1680156101855780820380516001836020036101000a031916815260200191505b509250505060405180910390f35b6101df600480360360408110156101a957600080fd5b81019080803573ffffffffffffffffffffffffffffffffffffffff16906020019092919080359060200190929190505050610774565b604051808215151515815260200191505060405180910390f35b610201610792565b6040518082815260200191505060405180910390f35b6102836004803603606081101561022d57600080fd5b81019080803573ffffffffffffffffffffffffffffffffffffffff169060200190929190803573ffffffffffffffffffffffffffffffffffffffff1690602001909291908035906020019092919050505061079c565b604051808215151515815260200191505060405180910390f35b6102a5610875565b604051808260ff1660ff16815260200191505060405180910390f35b61030d600480360360408110156102d757600080fd5b81019080803573ffffffffffffffffffffffffffffffffffffffff1690602001909291908035906020019092919050505061088c565b604051808215151515815260200191505060405180910390f35b6103736004803603604081101561033d57600080fd5b81019080803573ffffffffffffffffffffffffffffffffffffffff1690602001909291908035906020019092919050505061093f565b604051808215151515815260200191505060405180910390f35b6103b9600480360360208110156103a357600080fd5b81019080803590602001909291905050506109ba565b005b6103fd600480360360208110156103d157600080fd5b81019080803573ffffffffffffffffffffffffffffffffffffffff1690602001909291905050506109ce565b6040518082815260200191505060405180910390f35b61045f6004803603604081101561042957600080fd5b81019080803573ffffffffffffffffffffffffffffffffffffffff16906020019092919080359060200190929190505050610a16565b005b610469610a24565b6040518080602001828103825283818151815260200191508051906020019080838360005b838110156104a957808201518184015260208101905061048e565b50505050905090810190601f1680156104d65780820380516001836020036101000a031916815260200191505b509250505060405180910390f35b610526600480360360208110156104fa57600080fd5b81019080803573ffffffffffffffffffffffffffffffffffffffff169060200190929190505050610ac6565b005b610530610b37565b005b61057e6004803603604081101561054857600080fd5b81019080803573ffffffffffffffffffffffffffffffffffffffff16906020019092919080359060200190929190505050610b49565b604051808215151515815260200191505060405180910390f35b6105e4600480360360408110156105ae57600080fd5b81019080803573ffffffffffffffffffffffffffffffffffffffff16906020019092919080359060200190929190505050610c16565b604051808215151515815260200191505060405180910390f35b6106406004803603602081101561061457600080fd5b81019080803573ffffffffffffffffffffffffffffffffffffffff169060200190929190505050610c34565b604051808215151515815260200191505060405180910390f35b6106bc6004803603604081101561067057600080fd5b81019080803573ffffffffffffffffffffffffffffffffffffffff169060200190929190803573ffffffffffffffffffffffffffffffffffffffff169060200190929190505050610c51565b6040518082815260200191505060405180910390f35b606060038054600181600116156101000203166002900480601f01602080910402602001604051908101604052809291908181526020018280546001816001161561010002031660029004801561076a5780601f1061073f5761010080835404028352916020019161076a565b820191906000526020600020905b81548152906001019060200180831161074d57829003601f168201915b5050505050905090565b6000610788610781610cd8565b8484610ce0565b6001905092915050565b6000600254905090565b60006107a9848484610ed7565b61086a846107b5610cd8565b61086585604051806060016040528060288152602001611b6a60289139600160008b73ffffffffffffffffffffffffffffffffffffffff1673ffffffffffffffffffffffffffffffffffffffff168152602001908152602001600020600061081b610cd8565b73ffffffffffffffffffffffffffffffffffffffff1673ffffffffffffffffffffffffffffffffffffffff1681526020019081526020016000205461118d9092919063ffffffff16565b610ce0565b600190509392505050565b6000600560009054906101000a900460ff16905090565b6000610935610899610cd8565b8461093085600160006108aa610cd8565b73ffffffffffffffffffffffffffffffffffffffff1673ffffffffffffffffffffffffffffffffffffffff16815260200190815260200160002060008973ffffffffffffffffffffffffffffffffffffffff1673ffffffffffffffffffffffffffffffffffffffff1681526020019081526020016000205461124d90919063ffffffff16565b610ce0565b6001905092915050565b600061095161094c610cd8565b610c34565b6109a6576040517f08c379a0000000000000000000000000000000000000000000000000000000008152600401808060200182810382526030815260200180611b196030913960400191505060405180910390fd5b6109b083836112d5565b6001905092915050565b6109cb6109c5610cd8565b82611490565b50565b60008060008373ffffffffffffffffffffffffffffffffffffffff1673ffffffffffffffffffffffffffffffffffffffff168152602001908152602001600020549050919050565b610a208282611648565b5050565b606060048054600181600116156101000203166002900480601f016020809104026020016040519081016040528092919081815260200182805460018160011615610100020316600290048015610abc5780601f10610a9157610100808354040283529160200191610abc565b820191906000526020600020905b815481529060010190602001808311610a9f57829003601f168201915b5050505050905090565b610ad6610ad1610cd8565b610c34565b610b2b576040517f08c379a0000000000000000000000000000000000000000000000000000000008152600401808060200182810382526030815260200180611b196030913960400191505060405180910390fd5b610b3481611717565b50565b610b47610b42610cd8565b611771565b565b6000610c0c610b56610cd8565b84610c0785604051806060016040528060258152602001611c426025913960016000610b80610cd8565b73ffffffffffffffffffffffffffffffffffffffff1673ffffffffffffffffffffffffffffffffffffffff16815260200190815260200160002060008a73ffffffffffffffffffffffffffffffffffffffff1673ffffffffffffffffffffffffffffffffffffffff1681526020019081526020016000205461118d9092919063ffffffff16565b610ce0565b6001905092915050565b6000610c2a610c23610cd8565b8484610ed7565b6001905092915050565b6000610c4a8260066117cb90919063ffffffff16565b9050919050565b6000600160008473ffffffffffffffffffffffffffffffffffffffff1673ffffffffffffffffffffffffffffffffffffffff16815260200190815260200160002060008373ffffffffffffffffffffffffffffffffffffffff1673ffffffffffffffffffffffffffffffffffffffff16815260200190815260200160002054905092915050565b600033905090565b600073ffffffffffffffffffffffffffffffffffffffff168373ffffffffffffffffffffffffffffffffffffffff161415610d66576040517f08c379a0000000000000000000000000000000000000000000000000000000008152600401808060200182810382526024815260200180611c1e6024913960400191505060405180910390fd5b600073ffffffffffffffffffffffffffffffffffffffff168273ffffffffffffffffffffffffffffffffffffffff161415610dec576040517f08c379a0000000000000000000000000000000000000000000000000000000008152600401808060200182810382526022815260200180611ad16022913960400191505060405180910390fd5b80600160008573ffffffffffffffffffffffffffffffffffffffff1673ffffffffffffffffffffffffffffffffffffffff16815260200190815260200160002060008473ffffffffffffffffffffffffffffffffffffffff1673ffffffffffffffffffffffffffffffffffffffff168152602001908152602001600020819055508173ffffffffffffffffffffffffffffffffffffffff168373ffffffffffffffffffffffffffffffffffffffff167f8c5be1e5ebec7d5bd14f71427d1e84f3dd0314c0f7b2291e5b200ac8c7c3b925836040518082815260200191505060405180910390a3505050565b600073ffffffffffffffffffffffffffffffffffffffff168373ffffffffffffffffffffffffffffffffffffffff161415610f5d576040517f08c379a0000000000000000000000000000000000000000000000000000000008152600401808060200182810382526025815260200180611bf96025913960400191505060405180910390fd5b600073ffffffffffffffffffffffffffffffffffffffff168273ffffffffffffffffffffffffffffffffffffffff161415610fe3576040517f08c379a0000000000000000000000000000000000000000000000000000000008152600401808060200182810382526023815260200180611a8c6023913960400191505060405180910390fd5b61104e81604051806060016040528060268152602001611af3602691396000808773ffffffffffffffffffffffffffffffffffffffff1673ffffffffffffffffffffffffffffffffffffffff1681526020019081526020016000205461118d9092919063ffffffff16565b6000808573ffffffffffffffffffffffffffffffffffffffff1673ffffffffffffffffffffffffffffffffffffffff168152602001908152602001600020819055506110e1816000808573ffffffffffffffffffffffffffffffffffffffff1673ffffffffffffffffffffffffffffffffffffffff1681526020019081526020016000205461124d90919063ffffffff16565b6000808473ffffffffffffffffffffffffffffffffffffffff1673ffffffffffffffffffffffffffffffffffffffff168152602001908152602001600020819055508173ffffffffffffffffffffffffffffffffffffffff168373ffffffffffffffffffffffffffffffffffffffff167fddf252ad1be2c89b69c2b068fc378daa952ba7f163c4a11628f55a4df523b3ef836040518082815260200191505060405180910390a3505050565b600083831115829061123a576040517f08c379a00000000000000000000000000000000000000000000000000000000081526004018080602001828103825283818151815260200191508051906020019080838360005b838110156111ff5780820151818401526020810190506111e4565b50505050905090810190601f16801561122c5780820380516001836020036101000a031916815260200191505b509250505060405180910390fd5b5060008385039050809150509392505050565b6000808284019050838110156112cb576040517f08c379a000000000000000000000000000000000000000000000000000000000815260040180806020018281038252601b8152602001807f536166654d6174683a206164646974696f6e206f766572666c6f77000000000081525060200191505060405180910390fd5b8091505092915050565b600073ffffffffffffffffffffffffffffffffffffffff168273ffffffffffffffffffffffffffffffffffffffff161415611378576040517f08c379a000000000000000000000000000000000000000000000000000000000815260040180806020018281038252601f8152602001807f45524332303a206d696e7420746f20746865207a65726f20616464726573730081525060200191505060405180910390fd5b61138d8160025461124d90919063ffffffff16565b6002819055506113e4816000808573ffffffffffffffffffffffffffffffffffffffff1673ffffffffffffffffffffffffffffffffffffffff1681526020019081526020016000205461124d90919063ffffffff16565b6000808473ffffffffffffffffffffffffffffffffffffffff1673ffffffffffffffffffffffffffffffffffffffff168152602001908152602001600020819055508173ffffffffffffffffffffffffffffffffffffffff16600073ffffffffffffffffffffffffffffffffffffffff167fddf252ad1be2c89b69c2b068fc378daa952ba7f163c4a11628f55a4df523b3ef836040518082815260200191505060405180910390a35050565b600073ffffffffffffffffffffffffffffffffffffffff168273ffffffffffffffffffffffffffffffffffffffff161415611516576040517f08c379a0000000000000000000000000000000000000000000000000000000008152600401808060200182810382526021815260200180611bd86021913960400191505060405180910390fd5b61158181604051806060016040528060228152602001611aaf602291396000808673ffffffffffffffffffffffffffffffffffffffff1673ffffffffffffffffffffffffffffffffffffffff1681526020019081526020016000205461118d9092919063ffffffff16565b6000808473ffffffffffffffffffffffffffffffffffffffff1673ffffffffffffffffffffffffffffffffffffffff168152602001908152602001600020819055506115d8816002546118a990919063ffffffff16565b600281905550600073ffffffffffffffffffffffffffffffffffffffff168273ffffffffffffffffffffffffffffffffffffffff167fddf252ad1be2c89b69c2b068fc378daa952ba7f163c4a11628f55a4df523b3ef836040518082815260200191505060405180910390a35050565b6116528282611490565b6117138261165e610cd8565b61170e84604051806060016040528060248152602001611bb460249139600160008973ffffffffffffffffffffffffffffffffffffffff1673ffffffffffffffffffffffffffffffffffffffff16815260200190815260200160002060006116c4610cd8565b73ffffffffffffffffffffffffffffffffffffffff1673ffffffffffffffffffffffffffffffffffffffff1681526020019081526020016000205461118d9092919063ffffffff16565b610ce0565b5050565b61172b8160066118f390919063ffffffff16565b8073ffffffffffffffffffffffffffffffffffffffff167f6ae172837ea30b801fbfcdd4108aa1d5bf8ff775444fd70256b44e6bf3dfc3f660405160405180910390a250565b6117858160066119ce90919063ffffffff16565b8073ffffffffffffffffffffffffffffffffffffffff167fe94479a9f7e1952cc78f2d6baab678adc1b772d936c6583def489e524cb6669260405160405180910390a250565b60008073ffffffffffffffffffffffffffffffffffffffff168273ffffffffffffffffffffffffffffffffffffffff161415611852576040517f08c379a0000000000000000000000000000000000000000000000000000000008152600401808060200182810382526022815260200180611b926022913960400191505060405180910390fd5b8260000160008373ffffffffffffffffffffffffffffffffffffffff1673ffffffffffffffffffffffffffffffffffffffff16815260200190815260200160002060009054906101000a900460ff16905092915050565b60006118eb83836040518060400160405280601e81526020017f536166654d6174683a207375627472616374696f6e206f766572666c6f77000081525061118d565b905092915050565b6118fd82826117cb565b15611970576040517f08c379a000000000000000000000000000000000000000000000000000000000815260040180806020018281038252601f8152602001807f526f6c65733a206163636f756e7420616c72656164792068617320726f6c650081525060200191505060405180910390fd5b60018260000160008373ffffffffffffffffffffffffffffffffffffffff1673ffffffffffffffffffffffffffffffffffffffff16815260200190815260200160002060006101000a81548160ff0219169083151502179055505050565b6119d882826117cb565b611a2d576040517f08c379a0000000000000000000000000000000000000000000000000000000008152600401808060200182810382526021815260200180611b496021913960400191505060405180910390fd5b60008260000160008373ffffffffffffffffffffffffffffffffffffffff1673ffffffffffffffffffffffffffffffffffffffff16815260200190815260200160002060006101000a81548160ff021916908315150217905550505056fe45524332303a207472616e7366657220746f20746865207a65726f206164647265737345524332303a206275726e20616d6f756e7420657863656564732062616c616e636545524332303a20617070726f766520746f20746865207a65726f206164647265737345524332303a207472616e7366657220616d6f756e7420657863656564732062616c616e63654d696e746572526f6c653a2063616c6c657220646f6573206e6f74206861766520746865204d696e74657220726f6c65526f6c65733a206163636f756e7420646f6573206e6f74206861766520726f6c6545524332303a207472616e7366657220616d6f756e74206578636565647320616c6c6f77616e6365526f6c65733a206163636f756e7420697320746865207a65726f206164647265737345524332303a206275726e20616d6f756e74206578636565647320616c6c6f77616e636545524332303a206275726e2066726f6d20746865207a65726f206164647265737345524332303a207472616e736665722066726f6d20746865207a65726f206164647265737345524332303a20617070726f76652066726f6d20746865207a65726f206164647265737345524332303a2064656372656173656420616c6c6f77616e63652062656c6f77207a65726fa265627a7a72315820ed275b245c1db617e1f4ffc8464bd8d8b2e4489c4211d5337397565894a6f00c64736f6c63430005100032526f6c65733a206163636f756e7420697320746865207a65726f2061646472657373",
  "source": "// SPDX-License-Identifier: MIT\npragma solidity >=0.5.16 <0.8.0;\n\nimport './LinkTokenInterface.sol';\nimport './AggregatorV3Interface.sol';\nimport './BinToken.sol';\nimport '@openzeppelin/contracts/math/SafeMath.sol';\n\ncontract BinaryOptions {\n  //Overflow safe operators\n  using SafeMath for uint32;\n  using SafeMath for uint256;\n  address private owner;\n\n  // Constants\n  uint256 constant interval = 10 minutes;\n  \n  //Pricefeed interfaces\n  AggregatorV3Interface internal ethFeed;\n  AggregatorV3Interface internal linkFeed;\n  uint256 ethPrice;\n  uint256 linkPrice;\n\n  //Precomputing hash of strings\n  bytes32 ethHash = keccak256(abi.encodePacked('ETH'));\n\n  BinToken public token;\n\n  event Bought(uint256 amount);\n  event Sold(uint256 amount);\n\n  struct Round {\n    uint32[] options; // Options on this round\n    bool executed; // If the round has been executed\n    uint256 price; // Price at the end of the round\n    uint256 higherAmount;\n    uint256 lowerAmount;\n  }\n  \n  //Options stored in arrays of structs\n  struct Option {\n    uint256 price; // Price in USD (18 decimal places) when the option was issued\n    bool higher; // Type of higher/lower bet\n    uint32 execute; // Unix timeStamp of expiration time\n    uint256 amount; // Amount of tokens the option contract is for\n    uint32 id; // Unique ID of option, also array index\n    uint256 payout; // Payout of winner bet with 3 decimal places\n    address payable buyer; //Buyer of option\n    bool winner;\n  }\n\n  Option[] public ethOpts;\n  Option[] public linkOpts;\n  mapping(uint32 => Round) public ethRounds;\n  mapping(address => uint32[]) public pendingEthOps;\n  mapping(address => uint32[]) public collectedEthOps;\n\n  //Kovan feeds: https://docs.chain.link/docs/reference-contracts\n  constructor() public {\n    token = new BinToken();\n    //ETH/USD Kovan feed\n    ethFeed = AggregatorV3Interface(0x9326BFA02ADD2366b30bacB125260Af641031331);\n    //LINK/USD Kovan feed\n    linkFeed = AggregatorV3Interface(0x396c5E36DD0a0F5a5D33dae44368D4193f69a1F0);\n\n    owner = msg.sender;\n  }\n\n  //Returns the latest LINK price\n  function getLinkPrice() public view returns (uint256) {\n    (\n      uint80 roundID, \n      int price,\n      uint256 startedAt,\n      uint256 timeStamp,\n      uint80 answeredInRound\n    ) = linkFeed.latestRoundData();\n    // If the round is not complete yet, timeStamp is 0\n    require(timeStamp > 0, 'Round not complete');\n    //Price should never be negative thus cast int to unit is ok\n    //Price is 8 decimal places and will require 1e10 correction later to 18 places\n    return uint256(price);\n  }\n\n  //Returns the latest LINK price\n  function getEthPrice() public view returns (uint256) {\n    (\n      uint80 roundID, \n      int price,\n      uint256 startedAt,\n      uint256 timeStamp,\n      uint80 answeredInRound\n    ) = ethFeed.latestRoundData();\n    // If the round is not complete yet, timeStamp is 0\n    require(timeStamp > 0, 'Round not complete');\n    //Price should never be negative thus cast int to unit is ok\n    //Price is 8 decimal places and will require 1e10 correction later to 18 places\n    return uint256(price);\n  }\n\n  function getBinSupply() public view returns (uint256) {\n    return token.totalSupply();\n  }\n\n  function getCollateral() public view returns (uint256) {\n    return address(this).balance;\n  }\n\n  function getPrice() public view returns (uint256) {\n    uint256 supply = token.totalSupply();\n    uint256 collateral = address(this).balance;\n\n    if(supply == 0 || collateral == 0) {\n      return 1 ether;\n    }\n\n    \n    return collateral.mul(1 ether).div(supply);\n  }\n\n  function ehterToBin(uint256 amount) public view returns(uint256) {\n    uint256 price = getPrice();\n    return amount.mul(1 ether).div(price);\n  }\n\n  function binToEther(uint256 amount) public view returns(uint256) {\n    uint256 price = getPrice();\n    return amount.mul(price).div(1 ether);\n  }\n\n  function getPayOut(uint32 timeStamp) public view returns(uint256) {\n    return 80000;\n  }\n\n  function buy() payable public {\n    uint256 amountTobuy = msg.value;\n    require(amountTobuy > 0, \"You need to send some Ether\");\n    token.mint(msg.sender, ehterToBin(amountTobuy));\n    emit Bought(amountTobuy);\n  }\n\n  function sell(uint256 amount) public {\n    require(amount > 0, \"You need to sell at least some tokens\");\n    uint256 allowance = token.allowance(msg.sender, address(this));\n    require(allowance >= amount, \"Check the token allowance\");\n    token.burnFrom(msg.sender, amount);\n    msg.sender.transfer(binToEther(amount));\n    emit Sold(amount);\n  }\n\n  function place(uint32 timeStamp, uint256 amount, bool higher) public {\n    require(amount > 0, \"You need to send some BIN\");\n    uint256 allowance = token.allowance(msg.sender, address(this));\n    require(allowance >= amount, \"Check the token allowance\");\n    uint256 nextRound = now.sub(now.mod(interval)).add(interval);\n    require(timeStamp > nextRound, \"You can't bet for next round\");\n    require(timeStamp.mod(interval) == 0, \"Timestamp must be multiple of interval\");\n    token.transferFrom(msg.sender, address(this), amount);\n\n    Round storage round = ethRounds[timeStamp];\n    if (higher) {\n      round.higherAmount.add(amount);\n    } else {\n      round.lowerAmount.add(amount);\n    }\n    uint32 index = uint32(ethOpts.length);\n    round.options.push(index);\n    pendingEthOps[msg.sender].push(index);\n    ethOpts.push(Option(\n      getEthPrice(),\n      higher,\n      timeStamp,\n      amount,\n      index,\n      getPayOut(timeStamp),\n      msg.sender,\n      false\n    ));\n  }\n\n  function executeRound(uint32 timeStamp) public {\n    require(msg.sender == owner);\n    require(timeStamp.mod(interval) == 0, \"timeStamp must be multiple of interval\");\n    require(ethRounds[timeStamp].options.length > 0, \"No data for current round\");\n    require(!ethRounds[timeStamp].executed, \"Round already executed\");\n\n    ethRounds[timeStamp].executed = true;\n    ethRounds[timeStamp].price = getEthPrice();\n  }\n\n  function deletePending(uint32 index) internal {\n    uint32[] storage pending = pendingEthOps[msg.sender];\n    \n    collectedEthOps[msg.sender].push(pending[index]);\n    // remove element from array\n    if (index < pending.length-1) {\n      pending[index] = pending[pending.length-1];\n    }\n    delete pending[pending.length-1];\n    pending.length--;\n  }\n\n  function collect() public {\n    uint32[] storage pending = pendingEthOps[msg.sender];\n    uint256 amount;\n\n    for (uint32 i=0; i<pending.length;) {\n      Option storage option = ethOpts[pending[i]];\n      Round storage round = ethRounds[option.execute];\n      if (round.options.length == 0) {\n        // Inavlid bet, consider it a loose\n        deletePending(i);\n\n        // No need to increment, we need to process moved last element\n      } else if (round.executed) {\n        bool winner = option.higher ? round.price > option.price : round.price < option.price;\n        if (winner) {\n          amount += option.amount.mul(100000+option.payout).div(1000);\n          option.winner = true;\n        }\n\n        deletePending(i);\n\n        // No need to increment, we need to process moved last element\n      } else {\n        // increment position if not ready to collect\n        i++;\n      }\n    }\n\n    require(amount > 0, \"Nothing to collect\");\n    uint256 balance = token.balanceOf(address(this));\n    if (balance < amount) {\n      uint256 mintAmount = amount.sub(balance);\n      token.mint(address(this), mintAmount);\n    }\n    token.transfer(msg.sender, amount);\n  }\n}\n",
  "sourcePath": "/Volumes/Samsung_T5/Development/Crypto/binary-options/contracts/BinaryOptions.sol",
  "compiler": {
    "name": "solc",
    "version": "0.5.16+commit.9c3226ce.Emscripten.clang"
  },
  "schemaVersion": "3.3.1",
  "updatedAt": "2020-10-30T19:07:17.675Z",
  "networkType": "ethereum",
  "devdoc": {
    "methods": {}
  },
  "userdoc": {
    "methods": {}
  }
}